:020000040800F2
:10000000C8C400205139000861390008633900086C
:1000100065390008673900086939000800000000E8
:100020000000000000000000000000006B39000824
:100030006D390008000000005F0C0008C90D0008C1
:10004000B9390008BD390008C1390008C5390008B0
:10005000C9390008CD390008D1390008D539000860
:10006000D9390008DD390008E1390008E539000810
:10007000E9390008ED390008F1390008F5390008C0
:10008000F9390008FD390008013A0008053A00086E
:10009000093A00080D3A0008113A0008153A00081C
:1000A000193A00081D3A0008213A0008253A0008CC
:1000B000293A00082D3A0008313A0008353A00087C
:1000C000393A00083D3A0008413A0008453A00082C
:1000D000493A00084D3A0008513A0008553A0008DC
:1000E000593A00085D3A0008613A0008653A00088C
:1000F000693A00086D3A0008713A0008753A00083C
:10010000793A00087D3A0008813A0008853A0008EB
:10011000893A00088D3A0008913A0008953A00089B
:10012000993A00089D3A0008A13A0008A53A00084B
:10013000A93A0008AD3A0008B13A0008B53A0008FB
:10014000B93A0008BD3A0008C13A0008C53A0008AB
:10015000C93A0008CD3A0008D13A0008D53A00085B
:10016000D93A0008DD3A0008E13A0008E53A00080B
:10017000E93A0008ED3A0008F13A0008F53A0008BB
:10018000F93A0008FD3A0008F8B504000D00160021
:100190000027DFF8B0070078002802D01220307066
:1001A0000FE02078401E032809D800F037FD070033
:1001B0006561380000F036FD0020307001E001205C
:1001C0003070F1BD80B500F087FD00F099FA00F0C5
:1001D000C2FA00F01FFB00F05DFA00F013FE00F021
:1001E00073FE00F0A1FE00F0D7FA00F0F4FA00F080
:1001F000D0FE00F08AFD01F00FF801BD10B500241B
:10020000DFF8A0090078012841D100F007FD0400C3
:10021000DFF830070078002806D0DFF828070078DC
:10022000401EDFF820170870DFF818070078002854
:100230002AD1DFF814070078002825D100F05DFBF3
:10024000DFF864090078DFF8641951F82000DFF85E
:1002500060190860DFF850090078DFF8581909784C
:10026000884211D0DFF848090068C06B401CDFF8F5
:1002700040190968C863DFF840090068401CDFF8CE
:100280003819086000F0E7FC200000F0CBFC10BD3E
:1002900010B50024DFF80C090078012816D100F011
:1002A000BDFC0400DFF89C06007800280BD1DFF8C5
:1002B00098060078FF2806D0DFF88C060078401CEE
:1002C000DFF884160870200000F0ACFC10BD10B5FB
:1002D0000024DFF8D0080078012829D100F09EFC26
:1002E0000400DFF86006007800281ED1DFF8580609
:1002F0000078002815D0DFF850060078401EDFF89F
:1003000048160870DFF840060078002805D1200064
:1003100000F088FC00F0C3FA0AE0200000F082FC44
:1003200006E0200000F07EFC02E0200000F07AFCF5
:1003300010BD80B5DFF86C080078002819D100F0F6
:10034000DCFADFF87008DFF8601809780170DFF870
:1003500058080078DFF8541851F82000DFF85018DA
:100360000860DFF83C08DFF848180968016000F011
:100370005CFC01BD10B50024022001F033F800F050
:100380004DFC0400DFF8380800210160200000F077
:1003900049FC642001F026F800F040FC0400DFF87E
:1003A0002408DFF81C1809680160DFF81C08012127
:1003B0000170200000F036FC10BD70B5002600F082
:1003C000F3FC00F02BFC0600DFF800080068401C7E
:1003D000DFF8F8170860300000F024FCDFF8C407ED
:1003E0000078012863D1DFF8E8070078002803D0FF
:1003F000022807D003D30CE0012005000FE0002005
:1004000005000CE001200500DFF8C40701210170A0
:1004100005E001200500DFF8B80700210170EDB20A
:10042000002D44D0DFF8AC070068040094F83600D3
:100430003F283CD000F0F2FB0600206B002831D0B2
:10044000206B401E2063206B00282BD194F83400D1
:100450003721084209D094F8340010F0C80084F81D
:100460003400012084F8350002E0002084F83500D3
:1004700094F83400000715D4DFF85C07007894F88E
:100480003A100843DFF85017087094F83800DFF886
:100490004C17405C94F83910084394F83810DFF892
:1004A0003C2788546469300000F0BCFBBEE770BD97
:1004B00070472DE9F84F04000D0016001F00A07AC8
:1004C000DFF81C17405C81465FFA89F919EB0400DC
:1004D000C07ADFF80C17405C82465FFA89F95FEA60
:1004E000C90050FA8AF083465FFA8BFBDFF8BC063E
:1004F00050F82B0080460020C8F83000C8F824507F
:1005000098F83400B04388F8340088F8357098F8CB
:100510003400000717D4DFF8C006007898F83A10C6
:100520000843DFF8B41608705FFA89F9DFF8AC0603
:1005300019F8000098F8391008435FFA89F9DFF8D4
:100540009C1609F801002100404600F056F8D8F842
:100550002000002806D0D8F82010404600F066F8A9
:10056000C8F81C405846C0B2BDE8F28FDFF830260C
:100570001268D061DFF82826126892F83820121825
:10058000D27ADFF81C361B6893F839301A43DFF84B
:1005900010361B6893F838301B18DA72827ADFF84D
:1005A00000361B6893F83A301A438272DFF8F02560
:1005B000126892F838201100C9B2DFF820268A5C50
:1005C000DFF8DC351B6893F839309A43C9B2DFF89D
:1005D0000C36CA54C9B2DFF804268A5C002A0BD153
:1005E000DFF8F4251278DFF8B8351B6893F83A3055
:1005F0009A43DFF8E4351A70704710B490F8383039
:100600001A00D2B25318DB7A90F83940A343D2B221
:100610005418E372D2B25318DB7A002B04D18B7AD0
:1006200090F83A40A3438B7210BC7047F0B490F836
:1006300038703C0090F83A703D0090F839703E00F8
:100640000A0017683B00002B14D0E4B2E718FF7AC9
:10065000B743E4B214EB030C8CF80B70E4B2E71868
:10066000FF7A002F02D19F7AAF439F72121D176845
:100670003B00E8E7F0BC70470022827200221100C4
:10068000C9B2082905D2C9B20A180023D372491C7D
:10069000F6E77047F8B541F26801DFF8480500F069
:1006A000F5F800200400A4B2AE2C16D2601C0500A0
:1006B000A4B21820DFF82C1500FB04100600ADB220
:1006C0001820DFF8201500FB05100700002030700F
:1006D00077609BA07061641CE5E7A4B21820DFF886
:1006E000041500FB0410060000203070002070602C
:1006F00093A07061DFF8F004DFF8E8140160F1BD49
:10070000DFF8C804002101608E48002101708E4886
:1007100000210170DFF8D40400210170DFF88404A7
:1007200000210170DFF8900400210160DFF89004DF
:1007300000210160DFF8B80400210160DFF88404C3
:1007400000210160DFF8800400210170DFF8A404BB
:10075000002101707047DFF8801400220A70002128
:100760000800C0B2082806D2C0B2DFF87014002218
:100770004254401CF5E7DFF83C1400220A70DFF811
:10078000281400220A70DFF8281400220A60DFF81B
:10079000101400220A60704710B586B00320049040
:1007A0000020039080200290DFF84C0401904FF667
:1007B000FF7000903F23DFF8442400210FF25D100A
:1007C00000F0B3FF040005AADFF834143F2001F065
:1007D0000EF906B010BD10B586B0032004900020BD
:1007E000039080200290DFF81C0401904FF6FE7009
:1007F00000903E23DFF8102400210FF2511000F08A
:1008000094FF040005AADFF804143E2001F0EFF87D
:1008100006B010BDF8B54FF4F261DFF8F40300F054
:1008200035F84FF48071DFF8840300F02FF80020D2
:100830000400E4B2152C14D2601C0500E4B2582068
:10084000DFF8CC1300FB04100600EDB25820DFF8EF
:10085000C01300FB05100700776139A03065641CE8
:10086000E7E7E4B25820DFF8A81300FB0410060005
:100870000020706132A03065DFF85803002101606C
:10088000DFF89003DFF888130160F1BD89B2002919
:1008900004D000220270401C491EF7E7704710B5D3
:1008A000002400F0BBF9040026480078002820D17D
:1008B0002548007800281CD100F01FF8BA480078BD
:1008C000BA4951F82000BA490860B7480078B949D8
:1008D000097888420DD0B6480068C06B401CB44906
:1008E0000968C863B4480068401CB349086000F058
:1008F000AEF9200000F096F910BDB7490978B84A62
:10090000895C0800C0B2C100C0B2B44A825CB44B7A
:10091000D25C8918A44A11707047000038B50400F1
:10092000002500F07BF90500A5480068401CA4499B
:100930000860280000F076F900F0EAF9F1E700001D
:100940003F000000B8840020B984002038B50500BD
:1009500000249D480078002803D1C82000F042FD03
:10096000F7E7984800686421B0FBF1F0954908600A
:1009700094480068002805D1A74800210170FF2095
:1009800001F00EF900F04AF904008E480068642175
:1009900048438B490860200000F044F900F03EF91C
:1009A0000400934886490968016085480021016078
:1009B000200000F037F98E48006882490968B0FBD2
:1009C000F1F0D0F164009449087000F0A3F900F050
:1009D00004F8642000F006FDE0E77CB50020060086
:1009E000F6B2402E1AD200A93000C0B201F08CF845
:1009F0000500EDB2002D0FD1F6B26C4850F826007C
:100A00000400002C08D0012C06D0E068A16811EB8E
:100A10008000A0640198E064761CE1E773BD2DE9D5
:100A2000F74F05001E000C9FDDF834800E9C5FF030
:100A3000000A00F0F3F88246764800688146B9F172
:100A4000000F00F0A680D9F81400724908605046E3
:100A500000F0E8F80198C9F8000089F83650002045
:100A600089F83400002089F835000020C9F83000EA
:100A7000C9F80480C9F80C700298C9F80800A9F8F0
:100A80001040A9F81260002089F83B00EDB2E80898
:100A900089F8380015F0070089F83700012099F827
:100AA0003810884089F83A00012099F837108840BA
:100AB00089F839000020C9F81C000020C9F820007E
:100AC0000020C9F828000020C9F824000020C9F837
:100AD0003C000020C9F844000020C9F84000002074
:100AE000C9F848000020C9F84C0034A0C9F85000EB
:100AF000002083465FFA8BFBBBF1010F08D25FFA3F
:100B00008BFB19EB8B00002141651BF1010BF1E719
:100B1000484600F048F900F081F88246EDB22348DB
:100B200040F82590504600F07DF8484600F0EEF879
:100B300000F074F8824627480068C9F814000020C5
:100B4000C9F8180023480068002803D0214800682D
:100B5000C0F818901F48C0F800901F48007899F816
:100B60003A1008431C49087099F838001B49405C4A
:100B700099F83910084399F83810184A88541B48D6
:100B80000078401C19490870504600F04BF80020CE
:100B900003E0504600F046F84220BDE8FE8F00001A
:100BA0007C840020BD840020BB840020C8800020FD
:100BB00084840020BA840020648400203F00000068
:100BC0007884002070840020B78400209484002062
:100BD000BF84002088840020BC8400204084002042
:100BE000A83600085000002068840020BE84002041
:100BF00074840020C0840020C87C0020C47E0020B3
:100C000020390008C87A0020C47C00203039000850
:100C1000B870002080840020B6840020EFF310809C
:100C200072B6704780F3108870472148FF21017029
:100C3000002080F309881F48016881F308881E4856
:100C4000012101701D481E49016062B6FEE71B4884
:100C50001B4901607047194819490160704772B615
:100C6000EFF3098050B11EF0100F08BF20ED108A7D
:100C7000734620E9F80F13490968086000B5124867
:100C800080475DF804EB114811490A7802700D485D
:100C900010490A6802601068B0E8F80F9E461EF01E
:100CA000100F08BFB0EC108A80F3098862B6704755
:100CB00022ED00E0A8840020BD84002004ED00E0C7
:100CC000000000107C840020A50D0008BA840020DC
:100CD000BB84002084840020444A11004FF48062C9
:100CE0001000002804D0401E00220A60091DF8E709
:100CF0003F4A404B13603E4A1268D208D2003C4B38
:100D00001A603D4A00231380704770477047704750
:100D100070477047704730B40400151D2800C008A4
:100D2000C000001F5FF080750560001F0460001F99
:100D3000324D0560001F5FF012350560001F5FF047
:100D400003350560001F5FF002350560001F5FF08E
:100D500001350560001F0160001F5FF0113505605F
:100D6000001F5FF010350560001F5FF0093505605A
:100D7000001F5FF008350560001F5FF00735056054
:100D8000001F5FF006350560001F5FF00535056048
:100D9000001F5FF004350560001F7FF0020505604D
:100DA00030BC70477047704780B513480088401CBE
:100DB0001149088010480088642804D30E48002197
:100DC000018000F0DDF801BD10B5FFF727FF04003A
:100DD0000B480078401C0A4908702000FFF722FFEA
:100DE000FFF7EBFAFFF70AFA10BD0000B860002029
:100DF000A8840020B8700020B4840020571C00088C
:100E0000B8840020F8B550211648FFF73FFD0020B8
:100E10000400A4B2042C12D2601C0500A4B2114834
:100E200010EB04100600ADB20E4810EB05100700E1
:100E300000203070776009A0F060641CE9E7A4B27C
:100E4000084810EB0410060000203070002070608D
:100E500002A0F060024803490160F1BD3F000000BC
:100E60006C8400204083002030B445682B00056866
:100E70002C00002B07D1C5682A005460002C06D036
:100E80000025656003E01C60002C00D0636085686D
:100E9000290000258D6230BC704710B450F8041B47
:100EA00081B102681218001D50F8043BDC0744BFF2
:100EB000A9F10104E31852F8044B43F8044B091F4D
:100EC000F9D1EBE710BC704738B578211548FFF72A
:100ED000DDFC00200500ADB2042D10D2ADB218200B
:100EE000104900FB05100400ADB218200D4900FBAD
:100EF00005101830606009A060616D1CEBE7ADB2B1
:100F00001820084900FB051004000020606003A0C1
:100F1000606103480349016031BD00003F000000EB
:100F20008C84002068820020F8B560211348FFF708
:100F3000ADFC00200400A4B2032C10D2601C0500FC
:100F4000A4B218200D4900FB04100600ADB2182011
:100F50000A4900FB051007003760641CEBE7A4B2E8
:100F60001820064900FB04100600002030600248EB
:100F700002490160F1BD000090840020E082002061
:100F800010B59948006800F037FF04002000C0B297
:100F900010BDF8B54FF420719748FFF777FC40215A
:100FA0009648FFF773FC00200400A4B20F2C17D260
:100FB000601C0500A4B228208F4900FB0410060025
:100FC000ADB228208C4900FB05100700642030706A
:100FD000002086F82500F76081A03062641CE4E7F9
:100FE000A4B22820844900FB04100600642030705D
:100FF000002086F825000020F06079A03062794852
:10100000002101607A48002101807A481021018086
:10101000764879490160012000F048FE784908606F
:10102000002000F043FE7049086000AA754974482A
:101030000068FFF7A9F800AA73496B480068FFF73A
:10104000A3F800F001F8F1BD10B586B003200490BC
:1010500000200390802002906C4801904FF6FD70B4
:1010600000903D236A4A00210FF2E90000F05DFB89
:10107000040005AA67493D2000F0B9FC06B010BD88
:10108000F0B4032580F82550C9B2012905D1C569FE
:10109000544E3668751945610DE08569002D05D1FE
:1010A000C569504E36687519456104E085694D4E35
:1010B00036687519456145690826B5FBF6F707FBE3
:1010C00016573C00A4B24D4D15EBC4052B001D680E
:1010D000002D05D118600025C56001259D8007E021
:1010E0001D682A001860C26010619D886D1C9D807B
:1010F00000250561F0BC7047F0B445690826B5FBD2
:10110000F6F707FB16573C00A4B23C4D15EBC4059F
:101110002B001D68854207D1C56829001960002988
:101120000AD000250D6107E005692900C5682A007D
:10113000CA60002A00D01161012580F825500025E1
:10114000C560002505619D886D1E9D80F0BC7047BF
:10115000000000002DE9F843814600AA0021224842
:10116000006800F0CCFDFFF793F81E480068401CB3
:101170001C4908601B4800680821B0FBF1F202FB23
:10118000110290461FFA88F81C4810EBC8000700AF
:1011900038680400002C1FD0E06805001148006882
:1011A0006169884216D12000FFF7A6FF94F8240059
:1011B000022804D101212000FFF762FF02E0022093
:1011C00084F82500606806003000002802D0A1687D
:1011D0002000B0472C00DDE7FFF779F8BDE70000FD
:1011E0003F00000098840020A0840020A4840020F8
:1011F000B2840020B084002048780020E0830020E2
:101200009C840020E8380008FC380008C87E0020D4
:10121000C4800020403900083949080039490800D5
:101220003949080039490800394908003949080096
:101230003949080039490800394908003949080086
:101240003949080039490800394908003949080076
:101250003949080039490800394908003949080066
:101260003949080039490800394908003949080056
:101270003949080039490800394908003949080046
:101280003949080039490800394908003949080036
:101290003949080039490800394908003949080026
:1012A0003949080039490800394908003949080016
:1012B0003949080039490800394908003949080006
:1012C00039490800394908003949080039490800F6
:1012D00039490800394908003949080039490800E6
:1012E00039490800394908003949080039490800D6
:1012F000394908003949080039490800704700BFDA
:1013000066230008903900085E32000806340008A1
:10131000AA27000882380008A2380008AE38000862
:10132000DA3800086E390008003B0008023B00086C
:10133000043B0008063B0008083B00080A3B000885
:101340000C3B00080E3B0008103B0008123B000855
:10135000143B0008163B0008183B00081A3B000825
:101360001C3B00081E3B0008203B0008223B0008F5
:10137000243B0008263B0008283B00082A3B0008C5
:101380002C3B00082E3B0008303B0008323B000895
:10139000343B0008363B0008383B00083A3B000865
:1013A0003E3B0008403B0008423B0008443B00082D
:1013B00048780020E0830020483B00084A3B0008B2
:1013C0004C3B00084E3B0008503B0008523B0008D5
:1013D000543B0008563B0008583B0008463B0008B9
:1013E0005A3B000870B504000026384800780028F1
:1013F0002ED13748007800282AD1002C28D0FFF7BA
:101400000DFC06003348006890F838000500EDB286
:101410003148285C2F49096891F839108843EDB2AA
:101420002D496854EDB22C48285C002808D12B487F
:1014300000782849096891F83A10884327490870CC
:101440002448006804633000FFF7ECFBFFF727FA3D
:1014500070BD2DE9F04104000D0016001F001B486F
:101460000078002801D0552022E019480078002893
:1014700001D032201CE0E4B24FF46160EDB23C21B7
:1014800001FB05F100FB041050FA86F04FF47A716D
:10149000BFB24FF47A7202FB07F24FF47A73B2FBD9
:1014A000F3F201FB002080464046FFF79BFF00203F
:1014B000BDE8F08138B504000025FFF7AFFB05005B
:1014C000074804602800FFF7ADFB31BDB884002059
:1014D000B98400207C84002040840020BC8400204B
:1014E000948400202DE9F14F82B00C005FF0000BD6
:1014F000FFF794FB8346E4B2DFF8700750F824004E
:10150000002804D05846FFF78DFB28200BE19DF8FA
:101510000800FF2806D1DFF85807006890F8360069
:101520008DF808009DF80800DFF8401751F82000FA
:101530000700002F04D15846FFF774FB2920F2E082
:10154000012F04D15846FFF76DFB4320EBE0E4B2D6
:10155000E008804614F007008DF80300012010FA1F
:1015600008F08DF8010001209DF8031088408DF8E7
:1015700000009DF80800DFF8F416002241F8202052
:10158000E4B2DFF8E80640F8247097F838008146A6
:1015900097F83A008DF8020097F8390082465FFA12
:1015A00089F9DFF8D00619F800005FFA8AFA1AEA1A
:1015B0000000C0B2002836D05FFA89F9DFF8B4061F
:1015C00019F8000030EA0A005FFA89F9DFF8A4167A
:1015D00009F801005FFA89F9DFF8980619F80000A8
:1015E000002808D1DFF8900600789DF802108843A3
:1015F000DFF884160870DFF8800600789DF8011087
:101600000843DFF8741608705FFA88F8DFF864069C
:1016100018F800009DF8001008435FFA88F8DFF81A
:10162000541608F80100F8690500002D29D05FFA6A
:1016300089F919EB0500C07A30EA0A005FFA89F9E6
:1016400019EB0501C8725FFA89F919EB0500C07A38
:10165000002804D1A87A9DF802108843A872A87ABD
:101660009DF801100843A8725FFA88F818EB05008E
:10167000C07A9DF8001008435FFA88F818EB05015E
:10168000C872386A002833D0386A0600306805000E
:10169000002D2DD05FFA89F919EB0500C07A30EAE8
:1016A0000A005FFA89F919EB0501C8725FFA89F936
:1016B00019EB0500C07A002804D1A87A9DF8021021
:1016C0008843A872A87A9DF801100843A8725FFAAF
:1016D00088F818EB0500C07A9DF8001008435FFAFF
:1016E00088F818EB0501C872361D30680500CFE791
:1016F00087F8364087F838809DF8030087F8370070
:101700009DF8010087F83A009DF8000087F839003D
:101710005846FFF787FADFF864050078012801D101
:10172000FFF7BDF80020BDE8FE8F2DE9F74F84B02C
:101730001E00109C119FDDF84880DDF84C90149D30
:101740005FF0000BFFF76AFA8346DFF83405007894
:10175000002804D05846FFF765FA3C204CE0F6B26A
:10176000DFF8080550F82600002841D1F6B2DFF86E
:10177000FC04012140F826105846FFF753FA2A00CE
:1017800092B24146380000F085FA2B009BB2069ACF
:1017900005990498FFF7BFFA0390ADB20295CDF812
:1017A0000490CDF8008023009BB23A0003993000EA
:1017B000C0B2FFF734F982465FFA8AFABAF1000F35
:1017C00007D1DFF8B804007801280ED1FFF767F8D9
:1017D0000BE0FFF723FA8346F6B2DFF8900400210E
:1017E00040F826105846FFF71DFA5046C0B203E0F5
:1017F0005846FFF717FA282007B0BDE8F08FF8B574
:1018000004000027DFF878040078002801D0402089
:10181000B3E0E4B23F2C01D13E20AEE0FFF7FEF989
:101820000700E4B2FF2C05D1DFF84404006890F80B
:1018300036000400E4B2DFF8340450F82400060057
:10184000002E04D13800FFF7EDF9432095E0012E7A
:1018500004D13800FFF7E6F93D208EE096F8380015
:10186000DFF81014405C96F83910884396F8381069
:10187000DFF80024885496F83800DFF8F813405C4D
:10188000002808D1DFF8F003007896F83A10884372
:10189000DFF8E4130870F069002803D0F169300024
:1018A000FEF7ABFE306A002803D0316A3000FEF745
:1018B000BDFEB06A0500002D02D02800FFF7D4FA63
:1018C00000203063002086F83400002086F83500C0
:1018D000DFF8B0030078FF2806D0DFF8A80300780F
:1018E000401CDFF8A01308703800FFF79BF9FEF7E3
:1018F000DFFDFFF793F90700DFF888030078002881
:1019000006D0DFF880030078401EDFF878130870F7
:101910003000FFF7FCF9DFF870030078401EDFF8B5
:1019200068130870E4B2DFF84403002140F8241083
:10193000B069002807D17069002181617069DFF802
:101940004C13086005E0B069716941617069B16963
:101950008161DFF83C0300687061DFF834030660E2
:101960008EA030653800FFF75DF9DFF810030078CE
:10197000012801D1FEF793FF0020F2BDF8B5040065
:101980000026E4B23F2C01D13E202FE0E4B2FF2C30
:101990000ED1FFF743F90600DFF8D402006890F893
:1019A0003B0007003000FFF73DF93800C0B21DE0F2
:1019B000FFF734F90600E4B2DFF8B00250F8240073
:1019C0000500002D04D13000FFF72CF943200DE075
:1019D000012D04D13000FFF725F93D2006E03F201E
:1019E00085F83B003000FFF71DF90020F2BD2DE91E
:1019F000F04104000D0016005FF00008DFF88002DF
:101A00000078002802D01220307027E0FFF706F996
:101A10008046E4B2FF2C05D1DFF85402006890F84C
:101A200036000400E4B2DFF8440250F82400070056
:101A3000002F05D14046FFF7F5F8432030700DE048
:101A4000012F05D14046FFF7EDF84320307005E047
:101A50003D654046FFF7E6F800203070BDE8F081B4
:101A600070B504000026FFF7D9F80600E4B27F48FD
:101A700050F824000500002D04D13000FFF7D2F803
:101A8000462040E0012D04D13000FFF7CBF8432081
:101A900039E095F83400000731D595F8340010F09E
:101AA000F70085F8340095F83400002822D1286B1F
:101AB00000281BD17048007895F83A1008436E4909
:101AC000087095F838006B49405C95F83910084368
:101AD00095F83810674A88543000FFF7A3F8674834
:101AE0000078012809D1FEF7DAFE06E03000FFF7A2
:101AF00099F802E03000FFF795F8002003E030008D
:101B0000FFF790F8442070BD2DE9F04704000D0068
:101B10005FF0000A0020286000206860FFF77EF870
:101B20008246E4B2FF2C04D15148006890F8360098
:101B30000400E4B24D4850F824000600002E04D101
:101B40005046FFF76FF8432025E0012E04D15046A0
:101B5000FFF768F843201EE0307CC00704D45046ED
:101B6000FFF760F8452016E000208046F0688146C7
:101B7000B06807005046FFF755F83800071D0068A9
:101B8000002802D118F10108F7E7C5F80080B9EB89
:101B9000080068600020BDE8F08700003F000000FA
:101BA0002DE9F04104005FF00008FFF737F88046A8
:101BB000E4B2FF2C07D12E48006890F836000400EC
:101BC000012005000BE02A48006890F83600E4B2D6
:101BD000844202D10120050001E000200500E4B2AA
:101BE000224850F824000600002E04D14046FFF79A
:101BF00019F848202DE0012E04D14046FFF712F8D5
:101C0000432026E096F838000700FFB21948385CF8
:101C100096F839108843FFB216497854FFB2154838
:101C2000385C002806D11448007896F83A108843AA
:101C30001149087096F8340050F0080086F8340016
:101C40004046FEF7EFFFEDB2012D01D1FEF727FE72
:101C50000020BDE8F08180B505480068FFF759F81D
:101C6000FF20FFF7CCFD01BD00000000C880002070
:101C70007C84002040840020BC840020BD8400209F
:101C8000B8840020B9840020BE840020888400200D
:101C900080840020D30708D5930706D5002904D0F7
:101CA000491E00230360001DF8E7704770B504006B
:101CB00000264D480078002801D000201EE0FEF7E5
:101CC000ADFF060049480068050048480068002844
:101CD00004D0464800684068444908603000FEF778
:101CE000A1FF002D09D0032028702C8100206860FE
:101CF0003CA068612800FEF7BFFC280070BDF8B565
:101D000004000D00160000272078032802D00120CF
:101D1000307064E034480078002802D0022030702F
:101D20005DE033480078002802D00D20307056E086
:101D3000FEF774FF07002089002808D02089401E84
:101D400020813800FEF76EFF0020307047E0294800
:101D5000006890F8340050F001002649096881F8C5
:101D6000340024480068002180F8351021480068BC
:101D700005632000FEF7FAFB3800FEF753FFFEF77D
:101D80008EFDFEF74BFF07001A48006890F83500FB
:101D9000002802D0022803D005E00020307009E0BE
:101DA0000E20307006E0210012480068FEF725FC86
:101DB0000A2030700F480068002180F834100D4868
:101DC0000068002180F835100A4800680021C161D0
:101DD00008480068002101623800FEF723FFF1BDCA
:101DE000000000003F000000B8840020688400204C
:101DF000B98400207C84002070B504000025207880
:101E0000032801D0012024E0FEF708FF0500A07A96
:101E100000280DD00023012200212000FEF749FBFD
:101E200006002800FEF7FEFEFEF739FD002010E058
:101E300020894FF6FF71884207D02089401C2081FD
:101E40002800FEF7EFFE002003E02800FEF7EAFE80
:101E5000332070BD2DE9F04F93B0814617461D46E3
:101E6000029102AE002009E017F8011B0298C84752
:101E70000290002800F0CF81B069401CB061387832
:101E800008B9B069C9E12528EED10020F0603061C1
:101E9000706101E040F0010017F8011F2029F9D01E
:101EA00023290ED02B2904D02D2906D030290CD07F
:101EB0000FE040F0020080B2EEE740F0040080B294
:101EC000EAE740F0080080B2E6E740F0100080B298
:101ED000E2E72A290DD129680A1D2A6009683162C2
:101EE000002904D54942316240F0040080B27F1CD1
:101EF00013E0002131620BE0316A6FF00043994238
:101F000005D001EB810302EB4301303931627F1CC4
:101F10003A78A2F130010A29EED339782E291CBF74
:101F20004FF0FF31F1611ED117F8011F2A2906D1A8
:101F300029680A1D2A600968F1617F1C13E00021ED
:101F4000F1610BE0F1696FF00043994205D001EBBC
:101F5000810302EB43013039F1617F1C3A78A2F131
:101F600030010A29EED3B08439780FF2843000F0C2
:101F7000C3F908B117F8010B8DF82E009DF82E005B
:101F8000682804BF3878682803D162208DF82E00B5
:101F90007F1C0CA8B0603A78252A00F0B980582A36
:101FA00030D0632A00F0A380642A18BF692A64D065
:101FB0006F2A27D0702A1CD0732A04D0752A18BF24
:101FC000782A1FD09DE02868011D29600068706094
:101FD000F269002A03D500F0ABF930619DE00021E1
:101FE00000F0C2F900281ABF7168401AF069306128
:101FF00093E02868011D2960006801900CA87060BA
:10200000782170E09DF82E306C2B08BF286811D025
:10201000712B08BF286802D06A2B28680AD1C01D1E
:1020200020F007002860014601F108002860D1E98E
:10203000000102E0011D296000680190682B04BFC7
:1020400001A8008803D0622B02D101A8007801907A
:1020500096F82400000741D5019800283ED042F0B0
:10206000200078283AD1F0680CA930234354401C52
:10207000411CF1600CA9425430E09DF82E0062280A
:1020800002D0682806D00BE02868011D296090F96D
:10209000000009E02868011D2960B0F9000003E094
:1020A0002868011D296000680190002805D5F068A6
:1020B000411CF1600CA92D230FE0B08C810705D5E0
:1020C000F068411CF1600CA92B2306E0C00705D580
:1020D000F068411CF1600CA920234354F0680CA95E
:1020E00040187060114601A800F09AF815E0F068F9
:1020F000411CF16029680A1D2A600CAA09688154F4
:102100000BE0F068411CF1600CA92523435422B177
:10211000F068411CF1600CA942547F1C306AF168E0
:10212000401A7169401A3169A0EB010896F8240041
:10213000400719D420208DF80000B8F1010F13DBFF
:1021400044464FF0010A0DF1000B1BF8011B0298E9
:10215000C847029000285ED0B069401CB061BAF157
:10216000010AF2D1641EECD1F4680DF1300A5CB1C1
:102170001AF8011B0298C847029000284BD0B0699A
:10218000401CB061641EF3D130208DF80000D6F8F9
:1021900014B0BBF1010F10DB01240DF1000A1AF895
:1021A000011B0298C8470290A8B3B069401CB061F7
:1021B000641EF4D1BBF1010BEED13469D6F804A052
:1021C00054B11AF8011B0298C847029018B3B069BD
:1021D000401CB061641EF4D196F8240040077FF5DE
:1021E0004EAE20208DF80000B8F1010FFFF647AE8B
:1021F00001240DF1000A1AF8011B0298C847029049
:1022000048B1B069401CB061641EF4D1B8F1010856
:102210003FF435AEECE74FF0FF3013B0BDE8F08F80
:10222000F0B4C2686F2908BF082405D041F020032C
:10223000782B14BF0A241024182305682E4664291D
:1022400018BF692902D1002D48BF7642002E04BF75
:10225000056A002D09D1082C27D190F8281009070C
:1022600023D517233021D1751FE05D1E2B46B6FB09
:10227000F4F704FB17663036F6B23A2E24BFA1F10C
:10228000510C6644AE543E0003D085689F18BD4291
:10229000EBD3082C09D190F82810090705D5995CD3
:1022A000302902D05B1E30219954C3F118014161DD
:1022B0009A188260026A914207DA511A8161018D8F
:1022C0004FF6EF721140018510E0002A0ED590F80C
:1022D000282002F01402102A08D1426A0369D21A97
:1022E0008369D21A531A012BA8BF8361F0BC7047CF
:1022F000686C747A4C0000000278C9B28A421AB144
:102300001CBF10F8012FF9E718BF0020704750F8E4
:10231000041B61B150F8042BD30744BFA9F101039A
:102320009A18002342F8043B091FFAD1EFE77047DF
:1023300000F10103810704D010F8011B89B1810766
:10234000FAD10268B2F10131914311F0803F04BF2C
:1023500050F8042FF6E710F8011B11B110F8011B1B
:10236000FBE7C01A70470100C9B2830706D0521EAE
:1023700022D310F8013B9942F7D11FE0083A13D35A
:1023800002F1040241EA012141EA014150F8043B13
:10239000121F21BF4B40A3F1013C2CEA030C1CF09F
:1023A000803FF3D0C9B2001F083210F8013B521E23
:1023B00028BF91EA030FF8D818BF0120401E7047CC
:1023C000DFF874030068C00501D4012000E000209C
:1023D0007047DFF868030068800401D4012000E042
:1023E00000207047DFF850030068000501D4012089
:1023F00000E000207047DFF848030068400701D480
:10240000012000E000207047DFF834030068000777
:1024100001D4012000E000207047DFF828030068A5
:10242000000501D4012000E000207047DFF8180308
:102430000068000601D4012000E000207047DFF8AA
:1024400000030068000401D4012000E00020704770
:1024500080B5FFF7B5FF002805D0FFF7BAFF0028C9
:1024600001D0012000E0002002BD80B5FFF7A8FFE9
:10247000002805D0FFF7ADFF002801D0012000E0C3
:10248000002002BD80B500F077F800F02CF801BD07
:10249000AE49C97AAD4A8854AC49C97A491CAB4A9D
:1024A000D172C9B20A2902D3A8490022CA72704760
:1024B000A648807AA54AD27A904201D1002011E044
:1024C000A248807AA14A805C0100A048807A401C22
:1024D0009E4A9072C0B20A2802D39C48002282729F
:1024E0000800C0B2704700B583B001214FF4F2700C
:1024F00000F0DDF900208DF8040000208DF80600C2
:1025000000208DF8070002208DF805004FF4807040
:10251000009000A98F4800F0F7F94FF400500090A8
:1025200000A98D4800F0F0F94FF40060009000A978
:10253000884800F0E9F90420009000A9874800F0DD
:10254000E3F90820009000A9844800F0DDF94FF479
:102550000060009000A9824800F0D6F98020009029
:1025600000A9804800F0D0F94FF40040009000A985
:102570007A4800F0C9F907BD744900228A7273498C
:102580000022CA72714900220A7300210800C0B2F9
:102590000A281FD2C0B26E4911EB001164220A81D1
:1025A000C0B26B4911EB001102220A71C0B2684936
:1025B00011EB001100228A72C0B2654911EB0011C3
:1025C0000022CA72C0B2624911EB001100220A73E4
:1025D000401CDCE75E4964220A875D49052281F8D8
:1025E0003B205B496422A1F848205949052281F823
:1025F0004B2057496422A1F858205549052281F8FB
:102600005B2053496422A1F868205149052281F8D2
:102610006B204F49544A0A604D49544A0A614C495B
:10262000534A0A624A49534A0A634949524A0A6468
:102630004749524A0A654649514A0A664449514A3D
:102640000A674349504AC1F8802041494F4AC1F8BE
:102650009020704738B50400E4B23D4810EB0410F8
:10266000050028688047002845D02879052802D22F
:10267000052028715DE028790A2803D22879401CBA
:10268000287156E0A87A002809D10120A872E4B286
:10269000032000FB04F0401CC0B2FFF7F9FE2889BC
:1026A000012846D3E888298988420FD2E888401C4F
:1026B000E880298980B288423BD1E4B2032000FB44
:1026C00004F0C01CC0B2FFF7E3FE32E0E87A012854
:1026D0002FD3287B401C2873E97AC0B2884228D3C4
:1026E00000202873E4B2032000FB04F0401CC0B2B9
:1026F000FFF7CEFE1DE02879062802D305202871B9
:1027000013E02879002803D02879401E28710CE0B6
:10271000A87A012809D10020A872E4B2032000FBA6
:1027200004F0801CC0B2FFF7B3FE0020E880002058
:10273000287331BD00000000102002401008024044
:10274000101C024010140240101802402084002087
:10275000C88100200020024000080240001C024006
:102760000014024000180240C1230008D3230008CF
:10277000E5230008F7230008092400081B240008AB
:102780002D2400083F240008512400086B24000871
:1027900010B500200400E4B20A2C05D22000C0B21B
:1027A000FFF758FF641CF6E710BD0100F0B40021EC
:1027B00000220023022400250226DFF830713F6842
:1027C00017F00C0739000F00002F04D0042F06D09B
:1027D000082F08D03CE0DFF81C7107603BE0DFF811
:1027E0001871076037E0DFF808713F68C7F380575A
:1027F0003D00DFF8FC703F6817F03F073E00002DFA
:102800000DD0DFF8F470B7FBF6F7DFF8E4C0DCF8C2
:1028100000C0CCF3881C0CFB07F73B000CE0DFF892
:10282000D470B7FBF6F7DFF8C8C0DCF800C0CCF313
:10283000881C0CFB07F73B00DFF8B4703F68C7F358
:1028400001477F1C7F003C00B3FBF4F7076002E008
:10285000DFF8A0700760DFF894703F6817F0F007AA
:1028600039000909DFF89470CF5D3A000768D74056
:102870004760DFF878703F6817F4E0573900890A3D
:10288000DFF87870CF5D3A004768D7408760DFF89F
:102890005C703F6817F460473900490BDFF85C70E3
:1028A000CF5D3A004768D740C760F0BC7047C9B2F7
:1028B000002905D0124A12680243114B1A6004E045
:1028C0000F4A126882430E4B1A607047C9B2002942
:1028D00005D00C4A126802430A4B1A6004E0094A08
:1028E00012688243074B1A607047000008380240A4
:1028F000043802400024F40040787D0140000020AC
:102900003038024044380240F0B400220023002452
:1029100000252A00102A4AD2012595402B000D6877
:102920001D402C009C4240D1056803261700FFB2D1
:102930007F00BE40B543056005680E791700FFB201
:102940007F00BE40354305600D79012D02D00D7921
:10295000022D1AD1856803261700FFB27F00BE4002
:10296000B543856085684E791700FFB27F00BE4091
:1029700035438560456801269640B5434560456806
:102980008E799640B6B235434560C5680326170078
:10299000FFB27F00BE40B543C560C568CE79170061
:1029A000FFB27F00BE403543C560521CB2E7F0BCA9
:1029B0007047F0B400230024D2B211F00705EDB245
:1029C000AD0012FA05F52B0089B2CD1010EB85058C
:1029D00089B2CE1010EB8606366A0F2711F0070C6D
:1029E0005FFA8CFC5FEA8C0C17FA0CF7BE432E6280
:1029F00089B2CD1010EB85052D6A1D432C0089B2DC
:102A0000CD1010EB85052C62F0BC704700B587B087
:102A1000FDF7D8FB03200490002003904FF4806062
:102A20000290AC480190012000900123AA4A0021A5
:102A30000FF22100FEF779FE05AAA8490120FEF752
:102A4000D6FF0020FEF736FDFDF773FC002007B02F
:102A500000BD000010B5040000F08FF900F0DCF9B3
:102A600000F0A3F9FDF786FC00F0A9F8012000F0C2
:102A7000D8FA4FF4FA73002200210020FEF7E9FC97
:102A8000F4E738B50400FFF783FEFFF711FD0500FA
:102A9000EDB2012D06D38DF8005000A990480068D2
:102AA00000F0B2FB0A23002200210020FEF7D1FC37
:102AB000E9E730B587B0040005AA4FF47A71884879
:102AC000006800F012FB007805009DF81400002853
:102AD0004FD1EDB2012D04D104210A20FEF702FDF1
:102AE000EAE7EDB2042D02D100F0CAF8E4E7EDB256
:102AF0000A2D03D10420FFF753F8DDE7EDB20D2DC9
:102B000003D10420FEF7ACFFD6E7EDB2102D17D1AC
:102B100003200490002003904FF4806002907148DD
:102B200001900420009004236F4A00210FF24D0011
:102B3000FEF7FBFD05AA65A10420FEF758FFBBE7E1
:102B4000EDB2132DB8D10420FEF718FF8DF8140054
:102B50009DF814000028AFD19DF814004328ABD095
:102B60000420FEF70BFF8DF814001E20FEF73AFC40
:102B7000F2E7032000F055FA9EE7000010B50400CC
:102B8000042000F04EFA6423002200210020FEF70A
:102B900060FCFF20FEF7F2FE3F28F1D1FF20FEF798
:102BA0002EFEEDE710B50400022000F03AFA4FF4D3
:102BB000FA73002200210020FEF74BFCF4E700B579
:102BC00087B0002000F068FA4549086003200490AF
:102BD000002003904FF4806002904448019003204D
:102BE00000900323424A00214248FEF79EFD05AAB9
:102BF00041490320FEF7FBFE0320049000200390D0
:102C00004FF4806002903D4801903C2000903C23AE
:102C10003B4A00213B48FEF788FD05AA2CA13C2039
:102C2000FEF7E5FE03200490002003904FF480603F
:102C300002902C4801900420009004232A4A00218D
:102C40003148FEF772FD05AA20A10420FEF7CFFE51
:102C500003200490002003904FF4806002902B48E2
:102C60000190022000900223294A00212948FEF702
:102C70005CFD05AA28490220FEF7B9FE07B000BD99
:102C80001FB526480400264800F0EAFA0A20FEF79D
:102C9000A9FB002C18D002A994F83600FEF734FFE7
:102CA000206D01900398642148430399029A5118BA
:102CB000B0FBF1F00090029B039A94F8361019488B
:102CC00000F0CEFAA469E4E71FBD0000434F4D00B9
:102CD0004C454400B8100020B42000207039000892
:102CE00048840020B8400020B4500020B8200020C4
:102CF000B4300020B32A000810390008B830002092
:102D0000B4400020A52B00087D2B0008B8500020FF
:102D1000B4600020832A000888390008B8700020B9
:102D2000D43700084838000840B2002808D540B21F
:102D300010F00F02304BD2180B0102F8043C03E0F4
:102D400040B22E4A0B018354704710B50400601E38
:102D5000B0F1807F01D301200EE0601E2849086099
:102D60000F215FF0FF30FFF7DFFF264800210160F1
:102D7000254807210160002010BD80B500F007F84C
:102D800000F080FA00F0F4F8FFF77CFB01BD80B59D
:102D90004FF4A06000F0CCFA01BD00B585B000A8EA
:102DA000FFF704FD019805B000BD38B5FFF7F5FF4A
:102DB00004004FF47A70B4FBF0F005002800FFF730
:102DC000C4FF31BD10B51148006850F080700F4944
:102DD00008600F48002101600E48006850F00100B3
:102DE0000C490860FFF7D9FF0400200000F02EF81E
:102DF00010BD07480068704718ED00E000E400E0EF
:102E000014E000E018E000E010E000E0FCED00E07D
:102E1000041000E0001000E080B500F054F800F06D
:102E200059F800F04CF801BD10B5002400F08EFAFE
:102E3000040000F00FF81021DFF8100100F09CFAF8
:102E400000F01CF8200000F085FA10BDDFF800113A
:102E50000860704780B541480088401C3F490880A1
:102E60003F480088002803D1FFF7C3FF3D490860B1
:102E70003B480088401C3A49088001BD10B53848DD
:102E80000088401E3649088035480088002815D142
:102E9000FFF7AFFF344908603348006831490968DB
:102EA000401A04002B480068A04201D2294804605F
:102EB00029480068A04201D22748046010BD80B5AF
:102EC000FFF7B2FF01BD80B5214800210160FFF787
:102ED00079FF01BD70B500262048002101802048FF
:102EE000002101801F48002101601F48002101606E
:102EF0001848002101601848002101601B4800218A
:102F000001600020040000F021FA06000020050006
:102F1000ADB2002D0BD10F4800210160FFF79AFFE1
:102F2000FFF7ACFF0B48006804196D1CF0E70120A7
:102F3000B4FBF0F00D490860064800210160064826
:102F400000210160300000F005FA70BD30840020DF
:102F50004C8400205C84002060840020AC8400202D
:102F6000AE84002050840020548400205884002027
:102F700000B583B001214FF49270FFF798FC012057
:102F800000F030F8022000F02DF8032000F02AF8BD
:102F9000042000F027F801208DF8040000208DF8AF
:102FA000060000208DF8070003208DF805004FF47F
:102FB0008060009000A92F48FFF7A6FC80200090B9
:102FC00000A92D48FFF7A0FC4FF48070009000A9E5
:102FD0002948FFF799FC0420009000A92748FFF733
:102FE00093FC07BD401EC0B2002804D124494FF411
:102FF00080620A8014E0C0B2012803D121498022F6
:103000000A800DE0C0B2022804D11E494FF480723C
:103010000A8005E0C0B2032802D11B4904220A80BD
:103020007047C0B2012806D11849096891F480613F
:10303000164A11601DE0C0B2022806D11449096881
:1030400091F08001124A116013E0C0B2032807D149
:103050000F4909684FF4807251400D4A116008E031
:10306000C0B2042805D10B49096891F00401094A4E
:103070001160704700200240001402400008024026
:103080001820024018140240180802401420024080
:10309000141402401408024070B50400002656487B
:1030A0000078002801D000201EE0FDF7B7FD0600E3
:1030B00052480068050051480068002804D04F4875
:1030C000006840684D4908603000FDF7ABFD002DF9
:1030D00009D001202870002028816C6045A068611B
:1030E0002800FDF7C9FA280070BD2DE9F041040061
:1030F0000D0016005FF000082078012803D00120A1
:103100003070002074E03C480078002803D0022092
:10311000307000206CE03A480078002803D00D2081
:103120003070002064E0FDF779FD8046606807009C
:10313000002F08D0002060604046FDF773FD00209E
:103140003070380054E02F48006890F8340050F098
:1031500002002C49096881F834002A4800680021DF
:1031600080F835102748006805632000FDF7FEF958
:103170004046FDF757FDFDF792FBFDF74FFD8046FA
:103180002048006890F83500002802D0022807D0B7
:103190000BE01C480068406A0700002030700DE01A
:1031A000002007000E20307008E02100154800685C
:1031B000FDF723FA002007000A203070114800684C
:1031C000002180F834100F480068002180F8351085
:1031D0000C4800680021C1610A48006800210162B2
:1031E00008480068002141624046FDF71BFD380099
:1031F000BDE8F0813F000000B88400206884002012
:10320000B98400207C840020F8B504000D0000265D
:103210002078012801D0012020E0FDF7FFFC060006
:10322000A07A00280DD00023022229002000FDF7FB
:1032300040F907003000FDF7F5FCFDF730FB0020FA
:103240000CE06068002804D03000FDF7EBFC14208F
:1032500004E065603000FDF7E5FC0020F2BDAF0042
:103260000EB400B582B003A9009100AB0246012163
:10327000034878440A30FEF7EDFD06BC5DF810FB0C
:103280004506000000B587B001210120FFF70FFBC4
:1032900001211020FFF71AFB072209212248FFF71E
:1032A00088FB07220A212048FFF783FB00208DF8C6
:1032B000060001208DF8070002208DF804004FF46D
:1032C0000070009002208DF8050000A91648FFF755
:1032D0001BFB02208DF804004FF48060009000A9D1
:1032E0001148FFF711FB5FF4E13002900020ADF8C8
:1032F0000C000020ADF80E000020ADF810000020FA
:10330000ADF814000C20ADF8120002A9074800F037
:103310007BF80121054800F0F5F84021034800F052
:1033200013F907B000BD00BF0000024000100140CB
:1033300002490143024A1160704700000000FA058B
:103340000CED00E072B6704762B67047EFF3108084
:1033500072B6704780F31088704730BF704720BF47
:103360007047B0FA80F0704790FAA0F0B0FA80F0A1
:10337000704790FAA0F0704738B504000D002A009D
:103380000021200000F001F831BD2DE9F041002AB4
:1033900037D0002835D05FF0000E74465FF0000E85
:1033A000F446BCF1040F05D22402C9B20C431CF14F
:1033B000010CF6E713005FF0040EB0FBFEF808FB0B
:1033C0001E085FFA88F847460600002F0BD0BC465F
:1033D000002B08D0BCF1040F05D23170761C5B1EA7
:1033E0001CF1010CF4E73500042B03D32C602D1DD8
:1033F0001B1FF9E72E00002B03D03170761C5B1EDB
:10340000F9E7BDE8F08101002DE9F04385B0040043
:103410000D005FF00009002600275FF00008A88972
:103420000028208A814639F44059E88850EA090981
:10343000A4F81090A0898146314810EA0909A888AB
:10344000298908436989084350EA0909A4F80C90BE
:10345000A08A814639F44079A88950EA0909A4F87C
:10346000149000A8FFF7A2F92348844202D0234811
:10347000844202D10398060001E002980600A08968
:10348000000408D5192000FB06F029684900B0FBAC
:10349000F1F0070007E0192000FB06F02968890019
:1034A000B0FBF1F007006420B7FBF0F000018146AB
:1034B0005FEA1910642101FB10708046A0890004A6
:1034C0000AD55FEAC80032306421B0FBF1F010F099
:1034D000070050EA090909E05FEA08103230642168
:1034E000B0FBF1F010F00F0050EA0909A4F80890C1
:1034F00005B0BDE8F0830000001001400014014059
:10350000F3E9FFFFC9B2002904D0828952F40052C6
:10351000828104E082894DF6FF731A4082817047F0
:10352000CA05D20D82807047020000204FF400735C
:1035300089B2994213880B4202D00123180001E09E
:1035400000231800C0B2704789B28A0589B2CA4305
:103550000280704780B54848006850F470004649C2
:1035600008604648006850F001004449086044483B
:103570000021016041480068424908403F49086015
:103580004148424901603D48006830F480203B4991
:1035900008603F480021016000F005F83D485FF0F9
:1035A0000061016001BD82B0002001900020009008
:1035B0003248006850F48030304908602F48006875
:1035C00010F4003000900198401C019000980028F1
:1035D00003D10198B0F5A04FF0D1284800688003CE
:1035E00002D50120009001E0002000900098012801
:1035F0003ED12948006850F080502749086027488C
:10360000006850F44040254908601D481C4909687D
:1036100001601B48006850F40040194908601848D0
:10362000006850F4A0501649086017481C49016012
:103630001248006850F08070104908600F48006818
:103640008001FBD5174840F2057101600C48006805
:10365000800880000A4908600948006850F00200AC
:10366000074908600648006810F00C000828F9D1E6
:1036700002B070470000000088ED00E00038024012
:1036800008380240FFFFF6FE0438024010300024E4
:103690000C38024008ED00E0403802400070004065
:1036A00019544007003C02400000010002000100E4
:1036B00003000100020001000400010002000100FB
:1036C00003000100020001000500010002000100EA
:1036D00003000100020001000400010002000100DB
:1036E00003000100020001000600010002000100C9
:1036F00003000100020001000400010002000100BB
:1037000003000100020001000500010002000100A9
:10371000030001000200010004000100020001009A
:103720000300010002000100070001000200010087
:10373000030001000200010004000100020001007A
:103740000300010002000100050001000200010069
:10375000030001000200010004000100020001005A
:103760000300010002000100060001000200010048
:10377000030001000200010004000100020001003A
:103780000300010002000100050001000200010029
:10379000030001000200010004000100020001001A
:1037A000030001000200010010B5084979441C31F2
:1037B000074C7C441A34A14206D0081D0A685118EF
:1037C00088470146A142F8D110BD00BF5800000053
:1037D0007800000020205072696F2020205573650A
:1037E00064202046726565202050657220202020CC
:1037F0005461736B6E616D650D0A000038B504008D
:103800000D002100C9B289B20548FFF789FE4021A9
:103810000348FFF789FE0028F9D0200032BD0000E0
:1038200000100140EBEAFFFF74840000500000200C
:103830000000000067D6FFFF5000000020030000DA
:1038400000000020000000002020202532642020FD
:103850002535642020253564202025303264252537
:1038600020202025730D0A004EF68851CEF200016B
:10387000086840F4700008604FF00070E1EE100A34
:103880007047180000F009F8002801D0FFF78CFFFE
:103890000020FFF7BBF800F002F80120704700F0AD
:1038A00001B868100746384600F002F8FBE701004F
:1038B00080B5C046C046024A11001820ABBEFBE7E7
:1038C0002600020038B504460D46284600F006F8EA
:1038D000A84218BF0024204632BD01000149FFF76D
:1038E0008DBF00BF0000002075432F4F532D494965
:1038F00020546D724C6F636B0000000075432F4FB6
:10390000532D494920546D725369676E616C0000F4
:103910005573657220496E74657266616365000057
:1039200075432F4F532D49492049646C65000000B1
:1039300075432F4F532D4949205374617400000083
:1039400075432F4F532D494920546D7200000000DC
:103950000148804701480047553500087D39000877
:1039600070477047FEE7FEE7FEE7704770471000BC
:103970005374617274205461736B0000C046C0467A
:10398000FFF772FFFFF77EFF4B65795363616E00AF
:1039900078563412FFF7E4BFFFF7E3BFFFF7E2BF4B
:1039A000FFF7E1BFFFF7E0BFFFF7DFBFFFF7DEBFC5
:1039B000FDF755B9FDF708BAFFF7FEBFFFF7FEBFE9
:1039C000FFF7FEBFFFF7FEBFFFF7FEBFFFF7FEBF2B
:1039D000FFF7FEBFFFF7FEBFFFF7FEBFFFF7FEBF1B
:1039E000FFF7FEBFFFF7FEBFFFF7FEBFFFF7FEBF0B
:1039F000FFF7FEBFFFF7FEBFFFF7FEBFFFF7FEBFFB
:103A0000FFF7FEBFFFF7FEBFFFF7FEBFFFF7FEBFEA
:103A1000FFF7FEBFFFF7FEBFFFF7FEBFFFF7FEBFDA
:103A2000FFF7FEBFFFF7FEBFFFF7FEBFFFF7FEBFCA
:103A3000FFF7FEBFFFF7FEBFFFF7FEBFFFF7FEBFBA
:103A4000FFF7FEBFFFF7FEBFFFF7FEBFFFF7FEBFAA
:103A5000FFF7FEBFFFF7FEBFFFF7FEBFFFF7FEBF9A
:103A6000FFF7FEBFFFF7FEBFFFF7FEBFFFF7FEBF8A
:103A7000FFF7FEBFFFF7FEBFFFF7FEBFFFF7FEBF7A
:103A8000FFF7FEBFFFF7FEBFFFF7FEBFFFF7FEBF6A
:103A9000FFF7FEBFFFF7FEBFFFF7FEBFFFF7FEBF5A
:103AA000FFF7FEBFFFF7FEBFFFF7FEBFFFF7FEBF4A
:103AB000FFF7FEBFFFF7FEBFFFF7FEBFFFF7FEBF3A
:103AC000FFF7FEBFFFF7FEBFFFF7FEBFFFF7FEBF2A
:103AD000FFF7FEBFFFF7FEBFFFF7FEBFFFF7FEBF1A
:103AE000FFF7FEBFFFF7FEBFFFF7FEBFFFF7FEBF0A
:103AF000FFF7FEBFFFF7FEBFFFF7FEBFFFF7FEBFFA
:103B000014000200050001003F0001000100050053
:103B100001001800780001000400010004001800F2
:103B20000800010004000100010001008000010004
:103B300016000100010080000100010001004000AA
:103B40005800E8030100177201001000010008008E
:103B50000A0028008002080040003A230204010104
:103B600090830020E0830020908300209083002039
:103B7000908300203D000020240000200000000071
:103B80000000000000000000000000000000000035
:103B90000000000000000000000000000000000025
:0C3BA000010203040102030406070809E7
:040000050800397D39
:00000001FF
