:020000040800F2
:10000000F8D600209D0100083B1200088711000867
:10001000C3110008D90D00084D360008000000008B
:10002000000000000000000000000000352D000866
:1000300009100008000000003F020008C12100086C
:10004000B7010008B7010008B7010008B7010008B0
:10005000B7010008B7010008B7010008B7010008A0
:10006000B7010008B7010008B7010008B701000890
:10007000B7010008B7010008B7010008B701000880
:10008000B7010008B7010008B7010008B701000870
:10009000B7010008B7010008B7010008B701000860
:1000A000B7010008B7010008B7010008B701000850
:1000B000B7010008B7010008B7010008B701000840
:1000C000B7010008B7010008B7010008B701000830
:1000D000B7010008B7010008B7010008D5340008CF
:1000E000B7010008B7010008B7010008B701000810
:1000F000B7010008B7010008B7010008B701000800
:10010000B7010008B7010008B7010008B7010008EF
:10011000B7010008B7010008B7010008B7010008DF
:10012000B7010008B7010008B7010008B7010008CF
:10013000B7010008B7010008B7010008B7010008BF
:10014000B7010008B7010008B7010008B7010008AF
:10015000B7010008B7010008B7010008B70100089F
:10016000B7010008B7010008B7010008B70100088F
:10017000B7010008B7010008B7010008B70100087F
:10018000B7010008B7010008DFF80CD000F0B2FAA0
:1001900000480047F1470008F8D60020064880478D
:1001A00006480047FEE7FEE7FEE7FEE7FEE7FEE75C
:1001B000FEE7FEE7FEE7FEE7C52E0008890100081E
:1001C00072B6704762B67047EFF3108072B6704730
:1001D00080F31088704730BF704720BF7047B0FA77
:1001E00080F0704790FAA0F0B0FA80F0704790FA73
:1001F000A0F07047EFF3108072B6704780F310885C
:10020000704723484FF0FF010170002080F30988F8
:100210002048016881F308881F48012101701F48A8
:100220004FF08051016062B6FEE71C484FF08051EC
:100230000160704719484FF080510160704772B6F5
:10024000EFF3098050B11EF0100F08BF20ED108AA7
:10025000734620E9F80F12490968086000B5114893
:1002600080475DF804EB104810490A7802700C488A
:100270000F490A6802601068B0E8F80F9E461EF049
:10028000100F08BFB0EC108A80F3098862B670477F
:1002900022ED00E0500100201201002004ED00E0FA
:1002A00018010020291D0008070100200801002076
:1002B00020010020D2B201E000F8012B491EFBD240
:1002C00070470022F6E710B513460A460446194661
:1002D000FFF7F0FF204610BD00F0004230F0004074
:1002E0000AD0C10D01F56071C0F3160042EA015158
:1002F000C20840071143704700200146704730B5DF
:100300000B46014600202022012409E021FA02F5D3
:100310009D4205D303FA02F5491B04FA02F528446D
:10032000151EA2F10102F1DC30BD2DE9F05F05469A
:10033000002092469B4688460646814640241BE0A4
:10034000284641464746224600F0F5F953465A46AC
:10035000C01A914110D311461846224600F0DCF92C
:100360002D1A67EB01084F4622460120002100F0BC
:10037000D3F917EB00094E41201EA4F10104DFDC84
:10038000484631462A464346BDE8F09F2DE9FE4FD8
:10039000804681EA0300C00F0C46009021F0004126
:1003A00023F00045B8EB0200A94105D240462146A2
:1003B00090461C460B46024623F00040104304D1F1
:1003C0004046214603B0BDE8F08F270DC7F30A0071
:1003D000C3F30A510290401A0190402866DAC3F331
:1003E000130040F4801B0098924620B10023D2EB0A
:1003F000030A63EB0B0B01985946C0F140025046CB
:1004000000F08AF906460D4650465946019A00F01A
:10041000A2F910EB08006141002487EA115284EA36
:10042000E7731A433BD0009A3AB3019A012A4FEA84
:10043000075210DC001B61EB02014FF0004202EAA0
:100440000752CDE90042001C41F5801132462B468F
:1004500000F0A0F9B6E7001B61EB0201001C41F5BA
:10046000801300185B412018A2F5001747EB030129
:1004700040EAD570B6196D4111E06D084FEA3606B5
:1004800045EAC0754FEA0752001B61EB0201001CF0
:1004900041F5801149084FEA3000001951413246B8
:1004A0002B4603B0BDE8F04F00F067B90098012279
:1004B00040000023D0EB020263EBE073009821467A
:1004C0004FEAE074B8EB000061EB0401E9E783F068
:1004D00000435BE781F0004158E72DE9FE4F81EAD8
:1004E000030404F0004421F0004100944FF0000B9D
:1004F00023F0004350EA010402D052EA030404D17D
:100500000020014603B0BDE8F08FC3F30A54C1F3E5
:100510000A552C44A4F2F3340194A0FB0254C1F315
:10052000130141F48011C3F3130343F4801301FB5F
:10053000024400FB034E840A970A44EA815447EAC6
:100540008357A4FB076802958D0A05FB07854FEAD0
:10055000932C04FB0C542705029D4FEA065847EAEA
:100560001637B5EB08056EEB070C870E920E47EABF
:10057000811742EA8312A7FB0201B6EB0B0164EB81
:1005800000042B0D43EA0C335E1844EB1C50DA4692
:100590005146E7FB0201C5F313044FEA0B3343EA6C
:1005A00014534FEA0432019C43EA0603A4F10C04FD
:1005B0000294009CCDE900B400F0ECF8A2E72DE92C
:1005C000F04D81EA030404F0004B21F0004514468D
:1005D0004FF0000A23F0004150EA050220D054EA0F
:1005E00001021DD0C5F30A570246C5F31303C1F338
:1005F0001300C1F30A5640F4801543F48013A7EBAF
:100600000608101BD64608F2FD3873EB050002D32E
:1006100008F1010801E092185B41B8F1000F03DA1C
:1006200000200146BDE8F08D00204FF48011064601
:1006300084460EE0171B73EB050705D3121B63EB13
:10064000050306434CEA010C49084FEA30009218B2
:100650005B4150EA0107EDD152EA030012D082EA71
:10066000040083EA0501084303D100224FF0004350
:1006700008E0101BAB4102D20122002302E06FF020
:10068000010253101AEB06004CEB085110EB0A0064
:1006900041EB0B01BDE8F04D00F06FB8C1F30A5219
:1006A000C1F3130140F2FF3341F480119A4202DAA0
:1006B00000200146704740F233439A42A2F233428F
:1006C00002DC524200F037B800F026B830B50029FD
:1006D00004DB4FF00044404264EB0101002B04DBDB
:1006E0004FF00044524264EB0303994208BF90422A
:1006F00030BD0000064C074D06E0E06840F0010305
:1007000094E8070098471034AC42F6D3FFF740FD59
:10071000C44F0008E44F0008202A04DB203A00FA06
:1007200002F1002070479140C2F1200320FA03F348
:10073000194390407047202A04DB203A21FA02F046
:100740000021704721FA02F3D040C2F1200291400B
:10075000084319467047202A06DBCB17203A41FA96
:1007600002F043EAE07306E041FA02F3D040C2F13E
:100770002002914008431946704710B5002B08DA53
:10078000401C41F1000192185B411A4301D120F055
:10079000010010BD2DE9F04D92469B4611B1B1FA12
:1007A00081F202E0B0FA80F220329046FFF7B4FF07
:1007B00004460F4640EA0A0041EA0B0153465A46F6
:1007C000084303D120463946BDE8F08D114653EA6F
:1007D000010015D0C8F140025046FFF7ACFF0546B6
:1007E0000E46504659464246FFF796FF084301D051
:1007F000012000E00020054346EAE0762C43374321
:100800000A984FEA4453A0EB08004FEAD4240A3078
:100810004FF0000244EA47544FEAD72502D50020A2
:100820000146D1E7010510196941DDE908450019C4
:100830006941BDE8F04DA0E770B501EB020410F886
:10084000015B15F0070301D110F8013B2A1106D115
:1008500010F8012B03E010F8016B01F8016B5B1E2F
:10086000F9D12B0705D40023521E0FD401F8013B08
:10087000FAE710F8013B02F10202A1EB030303E0E7
:1008800013F8015B01F8015B521EF9D5A142D6D3E2
:10089000002070BD104D114C40212046FFF711FD86
:1008A00040212846FFF70DFD14E0284603F072FBB7
:1008B00005462146284603F08FFB0446072003F037
:1008C0005BFF03F052FF4FF47A730022114610468B
:1008D00001F068FAE9E70000DC6200201C630020F8
:1008E00021B1826842F00102826003E0826822F056
:1008F000010282607047000000210A4A11680A4A1A
:1009000001EA0201D0E9002342EA0302836842EAD5
:100910000302C36842EA030242EA0101034AC2F841
:100920000413704704230140E030FCFF0020014025
:1009300021B1826842F48072826003E0826822F40E
:1009400080728260704721B1826842F400728260D6
:1009500003E0826822F400728260704700B58FB0B5
:100960000121880502F00AF9002000901248019048
:10097000124802900020039010200490002005905F
:100980004FF480600690400007908000089040116E
:10099000099040020A9000200B9001200C9000204A
:1009A0000D900E906946064800F002FB01210448B4
:1009B00000F0F2FA0FB000BD4C200140E8630020C7
:1009C000106402401CB50121084602F0D7F801214D
:1009D000022002F0D3F80121042002F0CFF8FF201A
:1009E000009003208DF8040000208DF80700694670
:1009F0000D4800F055FB032000908DF80400002006
:100A00008DF807006946094800F04AFB3F20009036
:100A100003208DF8040000208DF807006946044883
:100A200000F03EFB1CBD000000000240000402403C
:100A30000008024030B50246002000235068104CE8
:100A400020400D790C6844EA0524204350609068EA
:100A50000C4C2040D1E903542C438D682C434D7934
:100A600044EA450420439060D06A20F470000C7D75
:100A7000641EE4B2234340EA0350D06230BD00005C
:100A8000FFFEFFFCFDF7FFC0F0B504460D46002059
:100A90000021092D11DDE068A5F10A0606EB4607E5
:100AA000072606FA07F18843A5F10A0606EB460673
:100AB00003FA06F10843E0600CE0206905EB450706
:100AC000072606FA07F1884305EB450603FA06F107
:100AD00008432061072A0FDA606B561E06EB860773
:100AE0001F2606FA07F18843561E06EB860605FA0E
:100AF00006F10843606322E00D2A0FDA206BD61F4F
:100B000006EB86071F2606FA07F18843D61F06EB79
:100B1000860605FA06F10843206310E0E06AA2F1B8
:100B20000D0606EB86071F2606FA07F18843A2F199
:100B30000D0606EB860605FA06F10843E062F0BDF5
:100B4000816841F0804181607047000070B50446C3
:100B5000002500E06D1C02210D4802F0BFF80028BE
:100B6000F8D040200B4908802146094802F0C2F81D
:100B700000E06D1C0121064802F0B0F80028F8D012
:100B800040200449891E0880014802F0B0F870BD79
:100B9000003001401A04024010B50446FFF77AFE07
:100BA00010BD05E0642300221146104601F0FAF85A
:100BB000F8E7000000B587B0032000214FF4806201
:100BC000334BCDE90132CDE9031004200346314A0D
:100BD0000090314800F06EFE06AA30A1042000F01B
:100BE00079FF032000214FF480622F4BCDE90132C1
:100BF000CDE903100A2003462C4A00902C4800F04F
:100C000059FE06AA2BA10A2000F064FF0320002150
:100C10004FF480622A4BCDE90132CDE903100B205D
:100C20000346284A0090284800F044FE06AA27A15F
:100C30000B2000F04FFF032000214FF48062264B71
:100C4000CDE90132CDE903100C200346234A009080
:100C5000234800F02FFE06AA22A10C2000F03AFF44
:100C6000032000214FF48062214BCDE90132CDE910
:100C700003103C2003461F4A00901F4800F01AFE54
:100C800006AA1EA13C2000F025FF07B000BD000011
:100C90005C11002058210020A30B0008434F4D2079
:100CA0005461736B000000005C210020583100206B
:100CB000990B0008414443205461736B000000000D
:100CC0005C31002058410020250D0008534153207D
:100CD0005461736B000000005C41002058510020FB
:100CE0001B0D00084D505054205461736B000000E0
:100CF0005C51002058610020090D00084C4544203B
:100D00005461736B0000000006E04FF4FA73002298
:100D10001146104601F046F8F7E710B5044603F017
:100D2000BBF910BD06E04FF4FA73002211461046DD
:100D300001F038F8F7E703F0D9FA03F0FDFE00F010
:100D40004DF800F017F800F08DFDFFF733FF08E0D5
:100D500003F04AFD4FF47A7300221146104601F069
:100D600021F8F5E71FB5684601F038FF019804B097
:100D700010BD00002DE9F041FFF7F4FF05464FF4E8
:100D80007A70B5FBF0F42146481EB0F1807F00D3A5
:100D90001BE0481E4FF0E022506150170F22002840
:100DA00007DA13071F0E0A4B00F00F06361F9F5578
:100DB00003E013071E0E074B1E5400BF00204FF028
:100DC000E02290610720106100BFBDE8F0810000C3
:100DD00018ED00E000E400E000BFFEE710B500F011
:100DE000ABF800F003F800F0A3F810BD70B50026D2
:100DF00000201849088018490880184908601849D7
:100E000008601849086018490860184908600024FB
:100E100000BFFFF7D9F9064600BF00250BE0002010
:100E20001049086000F024F800F03CF80D48006814
:100E30000444681C85B2002DF1D00C4804600020E9
:100E4000084908600849086000BF3046FFF7C0F94C
:100E500000BF70BDD4000020D6000020D8000020C4
:100E6000DC000020E4000020E8000020E00000207A
:100E700010B509480088401C0749088007480088C9
:100E800018B900F083F80649086004480088401C3F
:100E90000249088010BD0000D4000020D6000020C8
:100EA000D800002010B50F480088401E0D4908806A
:100EB00008460088A0B900F069F80B4908600846A8
:100EC00000680A490968441A09480068A04201D22A
:100ED0000748046007480068A04201D20548046042
:100EE00010BD0000D6000020DC000020D80000204B
:100EF000E4000020E800002010B5002400BF00BF7F
:100F0000FFF762F9044600BFFFF7B2FF00BF1021F0
:100F1000064800F058F900BFFFF7C4FF00BF2046A5
:100F2000FFF756F900BF00BF10BD000008640020A5
:100F300010B5FFF7E1FF10BD10B5002002490860B1
:100F400000F00AF810BD0000D00000200149086040
:100F500070470000D000002010B50A48006840F03B
:100F6000807008490860002007494860084600680A
:100F700040F001000860FFF7F5FE04462046FFF749
:100F8000E5FF10BDFCED00E0001000E00148406806
:100F900070470000001000E021B1026842F0010239
:100FA000026003E0026822F0010202607047000064
:100FB00010B500220268134B1A40CC680B6823431B
:100FC0004C6923438C692343CC6923430C6A234334
:100FD0004C6A23438C6A23434C6B23438C6B23431F
:100FE0001A430260426922F00702D1E90B3423431D
:100FF0001A4342610B6943604B6883608B68C3602E
:1010000010BD00003F801CF0704700000021234904
:101010008279002A3AD00A46126803689A430B463E
:101020001A600A1D126803689A430B1D1A60027940
:1010300011440A6803681A430A60184A08321268A1
:1010400003689A43154B08331A601A1D1268036827
:101050009A43124B0C331A604279102A0ED11A1F90
:10106000126803681A430D4B08331A601A1D126880
:1010700003681A43094B0C331A600DE007494279A3
:1010800011440A6803681A430A6005E002791144B2
:101090000A6803689A430A6070470000003C0140F8
:1010A000F0B50A4600210023002400BF3DE00125E1
:1010B00005FA01F3156805EA03049C4234D105687A
:1010C0004F000326BE40B543056015794E00B5407C
:1010D0000668354305601579012D02D01579022D7A
:1010E00016D185684F000326BE40B543856055790B
:1010F0004E00B540866835438560456801268E40C0
:10110000B5434560456896798E40B6B23543456033
:10111000C5684F000326BE40B543C560D5794E0073
:10112000B540C6683543C560491C1029BFD3F0BD22
:10113000F0B5002300244D07ED0E02FA05F3CE10A2
:1011400000F1200555F826504E07F70E0F26BE4039
:10115000B543CF1000F1200646F82750CE1000F11D
:10116000200555F8265045EA0304CE1000F120056D
:1011700045F82640F0BD41837047018370474269BE
:101180004A4042617047704710B504469FED080A17
:1011900084ED060A9FED060A84ED070A9FED040A16
:1011A00084ED080A0121204602F07FFF10BD0000F7
:1011B0000000000010B504462C212046FFF781F8FE
:1011C00010BD00BFFEE730B505460C4622460021A3
:1011D000284600F001F830BD2DE9F04103460C46E9
:1011E00017460FB9BDE8F08103B9FBE700250022DF
:1011F00002E02D022543521C042AFAD3384603F09C
:10120000030C1946BCF1000F08D0624603E001F858
:10121000014B401E521C08B1042AF8D30E4601E0CF
:1012200020C6001F0428FBD2314602E001F8014B22
:10123000401E0028FAD100BFD4E7704710B54FF424
:10124000A06000F03DF810BD70B5002100230F2212
:10125000C47824B3174C246804F4E064C4F5E06453
:10126000C4F30721C1F10404E3B20A4144789C406D
:10127000E1B28478144021430C07210E0E4C05780E
:101280006155047804F01F050124AC4005786D1108
:101290004FF0E02606EB8505C5F8004109E004782B
:1012A00004F01F040125A540044C0678761144F88B
:1012B000265070BD0CED00E000E400E080E100E0AD
:1012C00002490143024A1160704700000000FA051C
:1012D0000CED00E008B54FF48060FFF7F1FF272028
:1012E0008DF8000001208DF8010003208DF8020028
:1012F00001208DF803006846FFF7A6FF08BD000037
:101300001D481E481E481F481F48204820482148A5
:101310002148224822482348234824482448254875
:101320002548264826482748274828482848294845
:1013300029482A482A482B482B482C482C482D4815
:101340002D482E482E482F482F48304830483148E5
:1013500031483248324833483348344834483548B5
:101360003548364836483748374838483848394885
:10137000394800BF70470000F04E0008F44E0008E6
:10138000FA4E0008FC4E0008F84E0008FE4E000819
:10139000004F0008024F0008044F0008064F0008E5
:1013A000084F00080A4F00080C4F00080E4F0008B5
:1013B000104F0008124F0008144F0008164F000885
:1013C000184F00081A4F00081C4F00081E4F000855
:1013D000204F0008224F0008244F0008264F000825
:1013E000284F00082A4F00082C4F00082E4F0008F5
:1013F000304F0008324F0008344F0008364F0008C5
:10140000384F00083A4F00083C4F00083E4F000894
:10141000404F0008424F0008464F0008484F000860
:101420004A4F00084C4F000838820020B886002040
:10143000504F0008524F0008544F0008564F000804
:10144000584F00085A4F00085C4F00085E4F0008D4
:10145000604F00084E4F0008624F00082DE9F04130
:1014600005460E46144600271148007818B1122090
:101470002070BDE8F0812878012808D0022807D024
:10148000032802D0042804D100E000BF00BF00BF41
:1014900002E001202070ECE700BFFEF7ABFE07463C
:1014A0006E613846FEF7AAFE0020207000BFE0E71C
:1014B0000501002010B500F019F800F0CFFF00F092
:1014C000FBFF01F01BF800F099FF00F059FF01F05D
:1014D000AFF801F0D9F801F051F801F077F800F019
:1014E00035FD00F021F8FFF70BFF10BD0A484FF45F
:1014F000806102E0491E002204C00029FAD1074A97
:10150000074B1A601A46126822F007021A6000227E
:10151000044B1A8070470000F8860020F8960020DF
:101520005001002054010020704700000648007858
:10153000012808D105480078FF2804D20348007824
:10154000401C02490870704712010020050100206C
:1015500010B500241A480078012830D1FEF74AFE61
:1015600004461848007820B116480078401E1549F6
:10157000087014480078F8B913480078E0B901F011
:10158000E5F812481249097850F82100114908601D
:101590000F4800781049097888420DD00D4800683E
:1015A000C06B401C0B490968C8630C480068401CAC
:1015B0000A490860FEF73EFE2046FEF71FFE10BDFA
:1015C000120100200501002006010020D078002033
:1015D000080100202001002007010020EC0000206D
:1015E00010B500240B480078012811D1FEF702FE47
:1015F00004460948007840B908480078FF2804D21A
:1016000006480078401C054908702046FEF7F6FDA4
:1016100010BD00001201002005010020060100207D
:1016200010B5002413480078012821D1FEF7E2FD0F
:10163000044611480078C0B91048007888B10F48B6
:101640000078401E0D4908700846007828B92046E9
:10165000FEF7D4FD01F040F80AE02046FEF7CEFD8B
:1016600006E02046FEF7CAFD02E02046FEF7C6FD72
:1016700010BD00001201002005010020060100201D
:1016800070B5054600261048007808B1002070BDEE
:10169000FEF7B0FD06460D480468006820B10B480F
:1016A00000684068094908603046FEF7A7FD4CB164
:1016B0000320207025810020606005A06061204625
:1016C00000F050FE2046E2E705010020F000002077
:1016D0003F0000002DE9F04105460E461446002764
:1016E0002878032803D001202070BDE8F08132481B
:1016F000007810B102202070F7E73048007810B170
:101700000D202070F1E7FEF775FD0746288940B1EE
:101710002889401E28813846FEF770FD0020207081
:10172000E3E72748006890F8340040F001002449BE
:10173000096881F8340000202149096881F83500E2
:101740001F4800680663284600F0CEFD3846FEF7C5
:1017500055FD00F0C1FFFEF74DFD07461848006833
:1017600090F8350020B1012809D0022806D102E006
:10177000002020700BE00E20207008E000BF2946FA
:101780000F48006800F07CFD0A20207000BF00BFF9
:1017900000200B49096881F834000949096881F87B
:1017A000350007490968C861054909680862384673
:1017B000FEF724FD00BF98E7050100200601002088
:1017C0001801002070B5044600252078032801D0B8
:1017D000012070BDFEF70EFD0546A07A60B1002322
:1017E00001221946204600F001FD2846FEF706FDBD
:1017F00000F072FF0020ECE720894FF6FF7188426D
:1018000007D22089401C20812846FEF7F7FC0020E3
:10181000DFE72846FEF7F2FC3320DAE710B50B4885
:10182000007890B900F092FF0948007809490870E3
:1018300009480749097850F8210008490860084616
:10184000006807490860FEF7DCFC10BD12010020AB
:101850000801002007010020D0780020200100208E
:101860001801002010B50024022000F05FFAFEF7F6
:10187000C1FC044600200B4908602046FEF7BEFC70
:10188000642000F053FAFEF7B5FC044605480068F2
:10189000054908600120054908702046FEF7AEFCA6
:1018A00010BD000014010020FC00002004010020F5
:1018B000704700002DE9F04F85B081468A46934677
:1018C0001C46DDE90F78129D00200390FEF792FC84
:1018D00003902348007830B10398FEF78FFC3C203A
:1018E00005B0BDE8F08F1F4850F8240088BB0120E8
:1018F0001C4941F824000398FEF780FC2A46414623
:10190000384601F06FF82B465A465146484600F0DB
:101910005FF904901198CDE9008002953A4620467F
:101920000E9B049900F028FF064636B90E48007851
:1019300001280CD100F0D0FE09E0FEF75BFC03901B
:101940000020084941F824000398FEF757FC304670
:10195000C6E7FFE70398FEF751FC2820C0E7000028
:1019600005010020D07800201201002070470000FF
:101970002DE9F041054600274A48007810B1402083
:10198000BDE8F0813F2D01D13E20F9E7FEF732FCA2
:101990000746FF2D03D14448006890F8365043486D
:1019A00050F8254024B93846FEF728FC4320E7E7E5
:1019B000012C04D13846FEF721FC3D20E0E714F865
:1019C000380F3B49085C617888432178384A505485
:1019D00014F838091146085C30B994F83A103548C3
:1019E0000078884333490870E06918B12046E169FE
:1019F00000F046FC206A18B12046216A00F055FC30
:101A0000A66A16B1304600F0E7FC0020206384F897
:101A1000340084F8350028480078FF2804D226488E
:101A20000078401C244908703846FEF7E7FB00F0B8
:101A3000DBFBFEF7DFFB07461F48007820B11E489E
:101A40000078401E1C490870204600F041F81B48F1
:101A50000078401E194908700020144941F82500FB
:101A6000A06930B900206169886115496069086022
:101A700005E0D4E905014861D4E905108861114801
:101A8000006860610F4804600FA020653846FEF7CB
:101A9000B5FB0E480078012801D100F01DFE0020A2
:101AA0006EE700000501002018010020D07800201A
:101AB0000A01002009010020060100201301002076
:101AC000240100201C0100203F0000001201002022
:101AD000704770472DE9F04106460F4614464FF017
:101AE00000081548007818B112202070BDE8F08178
:101AF000FEF780FB8046FF2E03D11048006890F867
:101B000036600F4850F826502DB94046FEF776FB58
:101B100043202070EAE7012D05D14046FEF76EFB19
:101B200043202070E2E72F654046FEF767FB002068
:101B3000207000BFDAE70000050100201801002036
:101B4000D0780020704770472DE9F04707460D46D2
:101B50004FF0000A002028606860FEF74BFB8246C9
:101B6000FF2F03D11848006890F83670174850F8D6
:101B700027402CB95046FEF741FB4320BDE8F087D3
:101B8000012C04D15046FEF739FB4320F6E7207CB8
:101B900010F0010F04D15046FEF730FB4520EDE771
:101BA0000026D4F80C90D4F808805046FEF726FBA7
:101BB00000E0761C58F8041B0029FAD02E60A9EB2F
:101BC000060068600020D9E718010020D0780020C6
:101BD00070B50446101D20F007004FF08076051FF9
:101BE00028462E60051F28462C60244E051F2846D7
:101BF0002E604FF01236051F28462E604FF0033638
:101C0000051F28462E604FF00236051F28462E601D
:101C10007610051F28462E60051F284629604FF0C4
:101C20001136051F28462E604FF01036051F284636
:101C30002E604FF00936051F28462E604FF00836FB
:101C4000051F28462E604FF00736051F28462E60D8
:101C50004FF00636051F28462E604FF00536051F4B
:101C600028462E604FF00436051F28462E606FF080
:101C70000206051F28462E6070BD0000F1280008EE
:101C80002DE9F04105464FF00008FEF7B3FA804613
:101C9000FF2D05D12048006890F83650012608E055
:101CA0001D48006890F83600A84201D1012600E0E6
:101CB00000261A4850F825402CB94046FEF79EFAF7
:101CC0004820BDE8F081012C04D14046FEF796FA89
:101CD0004320F6E794F838701148C05D94F8391045
:101CE00088430F49C8550846C05D30B994F83A108A
:101CF0000C48007888430B49087094F8340040F091
:101D0000080084F834004046FEF778FA012E01D12D
:101D100000F0E2FC0020D4E718010020D078002079
:101D20000A010020090100207047000070B5054637
:101D300000261748007800B170BD1648007800B141
:101D4000FAE71DB3FEF756FA06461348006890F806
:101D500038401248005D1049096891F839108843ED
:101D60000E4908550846005D40B90B48006890F8D8
:101D70003A100B4800788843094908700648006803
:101D800005633046FEF73AFA00F0A6FC00BFD3E741
:101D90000501002006010020180100200A01002092
:101DA000090100202DE9F04105460E4617461C4664
:101DB0001248007810B15520BDE8F0811048007835
:101DC00008B13220F8E74FF47A7060434FF47A712B
:101DD000B0FBF1F14FF461606843C6EB061200EB13
:101DE0008200384400EB4002C2EBC01001EBC00897
:101DF0004046FFF79BFF0020DEE7000005010020C2
:101E00000601002070B504460025FEF7F3F90546EB
:101E1000024804602846FEF7F1F970BD3801002041
:101E200070B5002600F076F8FEF7E4F90646334870
:101E30000068401C314908603046FEF7DFF9304841
:101E40000078012857D12F48007820B1012804D00C
:101E5000022809D103E001250BE0002509E0012556
:101E600001202849087004E0012500202549087058
:101E700000BF00BF05B970BD2348046837E0FEF716
:101E8000B9F90646206B70B3206B401E2063206BAF
:101E900048BB94F8340010F0370F09D014F8340F11
:101EA00000F0C800207001206070A4F1340402E04A
:101EB000002084F8350094F8340010F0080F12D197
:101EC00004F13804A0781149097840EA01000F496B
:101ED000087020780E49085C617840EA010014F827
:101EE00038190B4A505464693046FEF787F994F864
:101EF00036003F28C3D100BFBDE7000038010020F5
:101F000012010020280100202401002009010020E6
:101F10000A01002010B507480088401C05490880C8
:101F200008460088642803DB0020088000F004F8DD
:101F300010BD00005401002010B503480068FFF7F1
:101F400041FC0446204610BD48010020F8B54FF47E
:101F50002071284800F062FB4021274800F05EFB1A
:101F6000002514E0681C86B205EB8500214901EBD1
:101F7000C00406EB860001EBC0076420207000203F
:101F800084F82500E7601DA02062681C85B20F2D33
:101F9000E8D305EB8500174901EBC00464202070ED
:101FA000002084F82500E06014A02062002014497D
:101FB0000860144908801020134908800D4813490F
:101FC00008600120FFF75CFB114908600020FFF763
:101FD00057FB104908606A460FA10D480068FFF7DB
:101FE0003DFA6A4611A10B480068FFF737FA00F086
:101FF00027F8F8BD38820020B88600203F00000096
:10200000400100203E0100203C0100204C01002046
:10201000440100204801002075432F4F532D4949AA
:1020200020546D724C6F636B0000000075432F4F9E
:10203000532D494920546D725369676E616C0000DD
:1020400000B587B00320002180220A4BCDE9013280
:10205000CDE903104FF6FD703D23074A0090074875
:10206000FFF728FC06AA06A13D20FFF733FD07B0C5
:1020700000BD0000B8840020B4860020FD200008C8
:1020800075432F4F532D494920546D7200000000B5
:1020900070B50B46032580F82550012B05D1154E50
:1020A000C5693668354445610CE085692DB9114E26
:1020B000C56936683544456104E00E4E8569366869
:1020C00035444561057D05F007040B4D05EBC40162
:1020D0000D682DB908600025C56001258D8006E0DA
:1020E0000A680860C26010618D886D1C8D800025B3
:1020F000056170BD40010020B886002008B500BF12
:1021000000BF6A4600211A480068FFF7E3FAFFF7AC
:1021100067FA18480068401C1649086008460078AD
:1021200000F00708144800EBC8073C681AE0E668AE
:10213000104960690968884213D1204600F01EF8F2
:1021400094F82400022804D101212046FFF7A0FFC3
:1021500002E0022084F82500656815B12046A168D8
:10216000A8473446002CE2D1FFF75AFAC9E700002D
:102170004801002040010020B886002030B5057DD0
:1021800005F007040D4D05EBC4031D68854205D11C
:10219000C168196039B100250D6104E00169C268A8
:1021A000CA6002B11161012580F825500025C56083
:1021B00005619D886D1E9D8030BD0000B8860020A1
:1021C00010B5FEF717F8044606480078401C05498C
:1021D00008702046FEF712F8FFF722FEFFF7B8F965
:1021E00010BD000005010020704700002DE9F04FF0
:1021F00005460F4690469946A87A1D490E5C05F1A2
:102200000B00805D11F800B00BEBC60000F0FF0A78
:10221000184850F82A40002004F12404E0602760A8
:10222000207C20EA0800207484F81190207CA4F11E
:10223000240410F0080F0DD194F83A000E490978E3
:1022400008430D4908700D48805D94F83910084323
:102250000A4988552946204600F012F8206A20B124
:102260002046216A00F021F8E5615046BDE8F08F74
:10227000ED4D0008D0780020090100200A0100205F
:1022800010B590F8382001F10B039B5C90F83940B1
:10229000A34301F10B04A35423469B5C23B98B7A1F
:1022A00090F83A40A3438B7210BDF0B5024612F885
:1022B000384F95785678A2F138020B4618680FE02F
:1022C00000F10B073F5DB74300F10B0C0CF80470F5
:1022D00067463F5D17B9877AAF4387721B1D186841
:1022E0000028EDD1F0BD000010B51B4A1268D06186
:1022F000194A126892F8383000F10B02D25C164B82
:102300001B6893F839301A43134B1B6893F8384015
:1023100000F10B031A55827A0F4B1B6893F83A3081
:102320001A4382720C4A126892F838100B4A525CB7
:10233000094B1B6893F839309A43084B5A541A4694
:10234000525C42B9044A126892F83A30044A127850
:102350009A43034B1A7010BD180100200A01002097
:1023600009010020014600228A72002005E00023B6
:1023700001F10B021354421CD0B20828F7D3704766
:102380002DE9F0415021114800F048F900250DE0F9
:10239000681C86B20D4800EB051400EB0617002000
:1023A000207067600AA0E060681C85B2042DEFD33E
:1023B000064800EB051400202070606004A0E06077
:1023C000024804490860BDE8F081000080740020E4
:1023D0003F000000F400002030B501464A6808685C
:1023E0002AB9CC68606028B10025456002E0106021
:1023F00000B142608B6800259D6230BD70B541F22E
:102400006801134800F00AF9002411E0601C85B24D
:1024100004EB44000E4901EBC00305EB450001EB62
:10242000C006002018705E600AA05861601C84B26B
:10243000AE2CEBD304EB4400054901EBC0030020B4
:102440001870586003A0586108460349086070BDC1
:10245000186400203F000000F000002000200B491D
:1024600008600B4908700B4908700B4908700B494C
:1024700008700B4908600B4908600B4908600B495C
:1024800008600B4908700B4908707047380100203C
:102490000501002006010020130100201201002088
:1024A000EC0000201401002000010020FC000020AE
:1024B000040100203401002000210A4A117000208C
:1024C00004E00021084A1154411CC8B20828F8D37E
:1024D0000021064A1170064A1170064A1160064A28
:1024E00011607047090100200A0100200701002047
:1024F00008010020200100201801002070B54FF4D1
:10250000F261194800F08AF84FF48071174800F022
:1025100085F8002413E0601CC5B204EB440000EB16
:10252000C400114901EBC00305EB450000EBC500F9
:1025300001EBC0065E610EA01865601CC4B2152CCC
:10254000E9D304EB440000EBC400074901EBC003EE
:102550000020586106A0186500200649086002485E
:102560000549086070BD0000D0790020D0780020B7
:102570003F000000240100201C01002000B587B0AE
:102580000320002180220A4BCDE90132CDE903105E
:102590004FF6FF703F23074A00900748FFF78AF97C
:1025A00006AA06A13F20FFF795FA07B000BD00007C
:1025B000D0760020CC780020C928000875432F4F22
:1025C000532D49492049646C6500000000B587B06F
:1025D0000320002180220A4BCDE90132CDE903100E
:1025E0004FF6FE703E23074A00900748FFF762F956
:1025F00006AA06A13E20FFF76DFA07B000BD000055
:10260000D0740020CC7600200929000875432F4F94
:10261000532D4949205374617400000004E00022E6
:1026200000F8012B4A1E91B20029F8D17047000032
:1026300070B578211148FFF7F1FF00240EE004EB9C
:1026400044000E4901EBC005601C00EB400001EBAB
:10265000C00068600AA06861601C84B2042CEED3DC
:1026600004EB4400054901EBC0050020686004A0AC
:10267000686108460349086070BD00006081002061
:102680003F0000002C0100202DE9F041602110489E
:10269000FFF7C4FF00240DE0601C86B204EB440089
:1026A0000B4901EBC00506EB460001EBC0072F60AC
:1026B000601C84B2032CEFD304EB4400044901EB0B
:1026C000C00500202860084602490860BDE8F08186
:1026D000D88100203001002010B50024FDF78AFDCC
:1026E000044613480078F8B912480078E0B900F0C1
:1026F0002DF811481149097850F821001049086057
:102700000E4800780F49097888420DD00C480068BF
:10271000C06B401C0A490968C8630B480068401C2C
:1027200009490860FDF781FD2046FDF767FD10BDF2
:102730000501002006010020D078002008010020BB
:102740002001002007010020EC0000200649074A74
:102750001278885C0649095C034A515C01EBC001B0
:10276000044A117070470000ED4D00080901002077
:102770000A010020080100202DE9F84F05460F4608
:1027800090469946DDE90AAB00200090FDF732FD46
:10279000009046480468002C7DD004F11C0454F8D5
:1027A000080C424908600098FDF728FD44F81C7C9D
:1027B000A576002020766076606144F818BC44F865
:1027C00010AC44F8148C0C9824F80C0C24F80A9CD7
:1027D0000020E077E810207705F00700E076217F01
:1027E00001208840A077E17E0120884060770020AA
:1027F00020606060E060A0602062A0626062E062D1
:1028000020632BA06063A4F11C044FF0000606E0D7
:10281000002104F1540040F82610701CC6B2012EAD
:10282000F6DB2046FFF744F8FDF7E4FC0090214872
:1028300040F825400098FDF7E1FC2046FFF796F8A8
:10284000FDF7D8FC00901C48006860610020A06182
:102850001948006810B1184800688461164804607F
:1028600004F13804A0781549097840EA01001349B9
:10287000087020781249085C617840EA010014F879
:1028800038190F4A50540F48007800F101000D49E3
:102890000870009800E004E0FDF7B0FC0020BDE8FF
:1028A000F88F0098FDF7AAFC4220F8E71C010020F1
:1028B0003F000000D0780020240100200901002002
:1028C0000A01002013010020002400BF00BFFDF713
:1028D00091FC044605480068401C044908602046F5
:1028E000FDF78CFCFFF7F5F8F1E70000140100207C
:1028F00010B504480068FFF725F9FF20FFF738F806
:1029000010BD00001801002000BF00BF02E0C82079
:10291000FFF70CFA1F4800780028F8D01E4800681E
:102920006421B0FBF1F01C4908600846006828B932
:1029300000201A490870FF20FFF7A2F9FDF75AFCA2
:10294000044615480068642148431549086020463C
:10295000FDF754FC00BFFDF74DFC0446104800682D
:102960001049086000200E4908602046FDF746FC2B
:102970000C48006808490968B0FBF1F0C0F1640038
:1029800006490870FFF7DFF800F00EF86420FFF743
:10299000CDF9E0E704010020FC000020F800002051
:1029A00014010020000100207CB5002514E06946D8
:1029B0002846FFF7C9F8064666B9094850F8254089
:1029C00044B1012C06D0D4E9020100EB8100A064DF
:1029D0000198E064681CC5B23F2DE8DD7CBD0000B5
:1029E000D078002012F0010F08D012F0020F05D0AD
:1029F00002E0491E002308C00029FAD170470000F8
:102A000010B50446012C04D181020548FEF7B5FB40
:102A100004E04FF480610248FEF7ADFB10BD0000FA
:102A20000004024010B54FF480510248FEF7A7FBA6
:102A300010BD00000000024010B50446012C04D176
:102A4000C1030548FEF799FB04E04FF4004102483A
:102A5000FEF791FB10BD00000010024010B50446C7
:102A6000012C04D104210448FEF787FB03E0042174
:102A70000148FEF780FB10BD0010024010B504466F
:102A8000012C04D110210448FEF777FB03E010214C
:102A90000148FEF770FB10BD0010024010B504465F
:102AA000012C04D102210448FEF767FB03E0022158
:102AB0000148FEF760FB10BD000C024010B5044653
:102AC000012C04D104210448FEF757FB03E0042144
:102AD0000148FEF750FB10BD000C024010B5044643
:102AE000012C04D108210448FEF747FB03E008212C
:102AF0000148FEF740FB10BD000C024010B5044633
:102B0000012C04D110210448FEF737FB03E010210B
:102B10000148FEF730FB10BD000C024010B5044622
:102B2000012C04D120210448FEF727FB03E02021DB
:102B30000148FEF720FB10BD000C024010B5044612
:102B4000012C04D140210448FEF717FB03E040218B
:102B50000148FEF710FB10BD000C024010B5044602
:102B6000012C04D108210448FEF707FB03E00821EB
:102B70000148FEF700FB10BD0010024029B1064AD3
:102B800012680243044B1A6004E0034A126882434D
:102B9000014B1A60704700003038024029B1064AE4
:102BA00012680243044B1A6004E0034A126882432D
:102BB000014B1A60704700004038024029B1064AB4
:102BC00012680243044B1A6004E0034A126882430D
:102BD000014B1A607047000044380240F0B50021F4
:102BE00000220024022500260223324F3F6807F00E
:102BF0000C0121B1042905D0082937D105E02E4F59
:102C0000076036E02D4F076033E02A4F3F1F3F68D3
:102C1000C7F38056274F3F1F3F6807F03F036EB151
:102C2000264FB7FBF3F7DFF88CC0ACF1040CDCF8EF
:102C300000C0CCF3881C07FB0CF40CE01E4FB7FB64
:102C4000F3F7DFF870C0ACF1040CDCF800C0CCF393
:102C5000881C07FB0CF4174F3F1F3F68C7F3014761
:102C60007F1C7D00B4FBF5F7076002E0124F0760A0
:102C700000BF00BF0F4F3F6807F0F0010909104F78
:102C80007A5C0768D74047600A4F3F6807F4E05115
:102C9000890A0B4F7A5C4768D7408760054F3F68C9
:102CA00007F46041490B064F7A5C4768D740C7601C
:102CB000F0BD0000083802400024F40000127A0041
:102CC000AA00002021B1028842F04002028004E004
:102CD00002884FF6BF731A400280704702460020F8
:102CE00013890B4201D0012000E00020704701460B
:102CF000888970478181704710B50022028802F4EC
:102D000041520B884C8823438C882343CC8823432F
:102D10000C8923434C8923438C892343CC89234347
:102D20001A430280838B4FF2FF74234083830B8A04
:102D3000038210BD7047000030B500228B071C0FC6
:102D40000F2303FA04F20B4B8C1053F824309343F7
:102D5000084C8D1044F8253023468C1053F824304D
:102D60008C07240F00FA04F42343024C8D1044F81E
:102D7000253030BD083801400CB50020019000908E
:102D80003448006840F480303249086000BF314860
:102D9000006800F4003000900198401C01900098F9
:102DA00018B90198B0F5A04FF1D12A48006810F485
:102DB000003F02D00120009001E000200090009828
:102DC000012845D123484030006840F08050214917
:102DD000403108602048006840F440401E490860C7
:102DE0001C48083000681B49083108600846006824
:102DF00040F4004008600846006840F4A0500860B5
:102E00001648091F0860081F006840F08070091FFD
:102E1000086000BF0F48006810F0007FFAD040F251
:102E200005700F4908600B480830006820F0030067
:102E30000849083108600846006840F00200086050
:102E400000BF04480830006800F00C000828F8D1E2
:102E50000CBD0000003802400070004019544007CB
:102E6000003C024070B503460024144830F811506D
:102E700030F81100401C114E26F81100104800EBEC
:102E8000851020F81130304630F81100052803DB9A
:102E90000020354625F81100002207E0084800EB25
:102EA000821030F811000444501C82B2052AF5DB70
:102EB000A0B2052590FBF5F080B270BD5C610020EA
:102EC0009C61002010B51548006840F4700013495B
:102ED00008601348006840F00100114908600020B4
:102EE0000F49083108600E4800680E4908400C4937
:102EF00008600D48091D0860081F006820F4802044
:102F0000091F0860002006490C310860FFF734FFF4
:102F10004FF0006001498039086010BD88ED00E085
:102F200000380240FFFFF6FE1030002400B589B0E3
:102F3000344800683449B0FBF1F0401E3349088042
:102F400040F2FF3007900020ADF8200008460088CE
:102F5000ADF8180000208DF82200ADF81A0006A97F
:102F60002B4800F075FA6020ADF804000120ADF8A0
:102F700006000020ADF80800ADF810000820ADF8FC
:102F800012004001ADF814000020ADF816002148F1
:102F90004088039008211E4800F0A8F901A91C48A8
:102FA00000F052F91B48808803900821184800F06F
:102FB000FBF901A9164800F0A7F91648C08803904C
:102FC0000821134800F036FA01A9114800F0F6F97B
:102FD00010480088039008210D4800F02BF901A942
:102FE0000B4800F0E9F80121094800F063F80121DD
:102FF000074800F06BF80121054800F073F809B0AC
:1030000000BD0000BC0000200090D003A8000020FC
:10301000000001409800002000B589B020480068F9
:1030200040082049B0FBF1F0401E1F49088040F2E3
:10303000FF30079008460088ADF818000020ADF872
:103040002000ADF81A0006A9184800F001FA602027
:10305000ADF804000120ADF8060015480088039083
:103060000020ADF8100001A9104800F0A5F80821D3
:103070000E4800F0DFF80E484088039001A90B4885
:1030800000F0E2F80821094800F030F90121074872
:1030900000F010F80121054800F018F809B000BD53
:1030A000BC0000200090D003A800002000080040D1
:1030B000A000002021B1028842F08002028004E0DA
:1030C00002884FF67F731A400280704721B1028850
:1030D00042F00102028004E002884FF6FE731A40BB
:1030E0000280704731B1B0F8442042F40042A0F8A9
:1030F000442005E0B0F84420C2F30E02A0F84420BA
:10310000704700001CB501210420FFF747FD012195
:103110000820FFF733FD4FF44050009002208DF857
:10312000040003208DF8050000208DF80600012022
:103130008DF8070069461E48FDF7B2FF02220C21F8
:103140001B48FDF7F5FF02220D211948FDF7F0FF9E
:1031500001211020FFF712FD01210846FFF72EFD87
:103160004FF4D440009002208DF8040003208DF825
:10317000050000208DF8060001208DF80700694643
:103180000C48FDF78DFF012209210A48FDF7D0FF09
:1031900001220B210748FDF7CBFF01220D21054835
:1031A000FDF7C6FF01220E210248FDF7C1FF1CBD3D
:1031B000000C02400010024070B5002400220023E1
:1031C000058C4FF6FE7635400584028C8388048B8F
:1031D0004FF68F752C40B51E2C400D882C43751E64
:1031E0002A408D892A434D882A43104DA84202D097
:1031F0000F4DA84213D14FF6F7752A40CD892A43C7
:103200004FF6FB752A408D882A434FF6FF652B4009
:103210004FF6FF552B400D8A2B434D8A2B4383805D
:1032200004838D684563028470BD00000000014086
:10323000000401400A460021018B4FF6F773194044
:10324000114301837047000070B500240022002361
:10325000058C4FF6EF7635400584028C8388048B0D
:1032600048F6FF752C404FF6FF452C400D884FF671
:10327000FF7606EA05252C434FF6DF752A408D8937
:1032800006EA05152A434D8806EA05152A43154D19
:10329000A84202D0144DA8421DD14FF67F752A4096
:1032A000CD894FF6FF7606EA05152A434FF6BF751E
:1032B0002A408D8806EA05152A434FF6FF352B4034
:1032C0004FF2FF752B400D8A06EA85052B434D8A88
:1032D00006EA85052B43838004838D688563028419
:1032E00070BD000000000140000401400A460021BA
:1032F000018B4FF2FF7319404FF6FF7303EA02236D
:10330000194301837047000070B500240022002398
:10331000058C4FF6FF6635400584028C8388848BCC
:103320004FF68F752C404FF6FC752C400D882C43C2
:103330004FF6FF552A408D894FF6FF7606EA0525A0
:103340002A434D8806EA05252A43154DA84202D096
:10335000144DA8421DD14FF2FF752A40CD894FF67A
:10336000FF7606EA05252A434FF6FF352A408D8869
:1033700006EA05252A434EF6FF752B404DF6FF75EC
:103380002B400D8A06EA05152B434D8A06EA0515E2
:103390002B43838084838D68C563028470BD0000E5
:1033A00000000140000401400A460021818B4FF6D5
:1033B000F7731940114381837047000070B50022F4
:1033C00000230024058C4EF6FF7635400584038CDF
:1033D0008488828B48F6FF752A404FF6FF452A40C5
:1033E0000D884FF6FF7606EA05252A434DF6FF7550
:1033F0002B408D8906EA05352B434D8806EA0535B5
:103400002B430A4DA84202D0094DA84208D14BF6E1
:10341000FF752C400D8A4FF6FF7606EA85152C4382
:10342000848082838D680564038470BD0000014040
:10343000000401400A460021818B4FF2FF731940BE
:103440004FF6FF7303EA022319438183704700009C
:1034500000220288184B98420ED0184B98420BD08D
:10346000B0F1804F08D0164B984205D0154B9842CA
:1034700002D0154B984204D14FF68F731A404B88F7
:103480001A43124B984207D0114B984204D04FF682
:10349000FF431A400B891A4302804B68C3620B88B2
:1034A0000385054B984202D0044B984201D18B7A98
:1034B000038601238382704700000140000401401D
:1034C0000004004000080040000C004000100040D4
:1034D0000014004010B5FEF729F8FEF739F810BDCA
:1034E00001F40072B2F5007F00D100BFCA43028030
:1034F000704721B1828942F40052828104E08289BE
:103500004DF6FF731A408281704702460020B1F5E4
:10351000007F00D100BF13880B4201D0012000E0E2
:1035200000207047F0B50346002400260025002047
:10353000A1F510676A3F00D100BF1846C1F34214DD
:1035400001F01F06012707FA06F5012C01D10C3006
:1035500004E0022C01D1103000E014301AB10768E9
:103560002F43076002E00768AF430760F0BD00002B
:103570002DE9FF4705460E460024A14600BFA046A0
:10358000B08900B100BF2C8A24F44054F088044371
:103590002C82AC8941F20C608443B08831890843A5
:1035A000718908430443AC81AC8A24F44074B08927
:1035B0000443AC826846FFF711FB2048854202D0E5
:1035C0001F48854202D1DDF80C9001E0DDF808903B
:1035D000A88910F4004F08D009EBC90000EB0910CE
:1035E00031684900B0FBF1F707E009EBC90000EBD7
:1035F000091031688900B0FBF1F76420B7FBF0F0E7
:1036000004012009642101FB1078A88910F4004FFF
:1036100008D0322000EBC800B0FBF1F000F007004A
:10362000044308E0322000EB08106421B0FBF1F005
:1036300000F00F0004432C81BDE8FF87001001401B
:1036400000140140C1F308028280704700BFFEE70A
:103650000FB4054B10B503A9044A029800F0C6F850
:1036600010BC5DF814FB0000C5470008580100209D
:1036700002E008C8121F08C1002AFAD1704770473B
:10368000002001E001C1121F002AFBD17047000099
:103690002DE9FF5FDDE90220010DDDF838B00243BE
:1036A00010D10F9801244CA2012808D000210098C5
:1036B0000F9BC0E90021C0E90243BDE8FF9F6FEA0C
:1036C0000B01F4E7A1F2FF3144F6105041430D1411
:1036D0000F9801280ED0A5EB0B00401C4FF0000402
:1036E0003E4EDFF8FC90B0F1000AA04605DACAF1C0
:1036F000000717E0CBF10000F0E7074612E0F807FB
:1037000007D02246334640464946FCF7E6FE80464F
:1037100089462246334610461946FCF7DEFE04462B
:103720000E467F10002FEAD1DDE90201BAF1000F49
:1037300042464B4602DAFCF7D0FE01E0FCF73FFFC1
:1037400004460E460022274BFCF7C0FF03D84FF07B
:10375000FF30014607E00022234B20463146FCF7AC
:1037600015FEFCF79BFF102409E0002C0ADB0A225F
:103770000023FCF7DAFD019B30321A55641E50EA33
:103780000102F2D1641C019AC4F1110314440F9A8E
:10379000012A09D00122084301D15B450FDD4FF01A
:1037A000000205F101050DE0084303D1A3EB0B0571
:1037B0006D1E09E000204FF0110B0F9088E701DA31
:1037C00000226D1E002A83D000980F99C0E90231B3
:1037D000C0E9004571E7000030000000000024400F
:1037E0000000F03F0000F0430000E03F2DE9FF4FF4
:1037F00095B09B4689460646002512E2252878D1D9
:103800000024761CF94A2746012105943378203B91
:1038100001FA03F0104202D00443761CF6E7307838
:103820002A2811D06FF02F033078A0F13002092A36
:1038300016D8059A44F0020402EB820203EB42021E
:103840001044761C0590EFE759F8042B0592002AE6
:1038500003DA504244F40054059044F00204761C0C
:1038600030782E2816D116F8010F44F004042A28C7
:103870000DD06FF02F023078A0F13003092B09D85A
:1038800007EB870302EB4303C718761CF3E759F8ED
:10389000047B761C30786C280FD006DC4C2817D0BF
:1038A00068280DD06A2814D104E0742810D07A2832
:1038B0000FD10DE044F400140AE044F4801401E058
:1038C00044F440147278824202D1761C04F58014CC
:1038D000761C307866280BD013DC582877D009DCAA
:1038E000002875D04528F6D04628F4D047281AD1AC
:1038F0009FE118E0632835D0642879D0652812D17B
:1039000097E1702873D008DC6728F1D069286FD060
:103910006E280DD06F2806D1B5E073282CD07528FD
:1039200075D0782874D05A46179990476D1C76E167
:10393000C4F30250022809D003280DD0D9F8001092
:1039400004280DD00D6009F1040968E1D9F80010D0
:10395000EA17C1E90052F6E7D9F800100D80F2E746
:103960000D70F0E719F8041B8DF8001000208DF899
:103970000100EA46012003E059F804AB4FF0FF30A4
:1039800061074FF0000102D40DE008F10101884603
:10399000B9420FDA8045F8DB1AF808100029F4D193
:1039A00008E008F1010188468142FADB1AF80810A4
:1039B0000029F6D105985B46A0EB0807214638465A
:1039C000179A00F09EFA284400EB080507E04DE046
:1039D0002BE10DE01AF8010B5A4617999047B8F100
:1039E0000108F7D25B4621463846179A14E142E0B7
:1039F0000A220092C4F302524FF0000A022A08D0B1
:103A000059F804CB032A4FEAEC710AD00DE029E003
:103A10002AE009F1070121F00702F2E802C191460C
:103A200009E00FFA8CFC4FEAEC71042A03D14FFA3B
:103A30008CFC4FEAEC71002907DA0A460021DCF120
:103A4000000C61EB02012D2202E0220504D52B229D
:103A50008DF80420012203E0E20701D02022F7E7DD
:103A6000904653E00A2102E010220DE010214FF0B1
:103A7000000A00910BE010224FF0000A44F0040409
:103A80000827009203E008224FF0000A0092C4F3D6
:103A90000252022A05D059F804CB0021032A08D08B
:103AA00009E009F1070121F00702F2E802C191469D
:103AB00005E01FFA8CFC042A01D10CF0FF0C4FF03A
:103AC0000008220722D5702827D0009B83F010031E
:103AD00053EA0A0309D15CEA010206D030228DF8CC
:103AE00004208DF8050002229046009B83F0080315
:103AF00053EA0A030AD15CEA010201D1620705D543
:103B000030228DF804204FF001087F1E582809D07C
:103B100037A003900EA8029013E040228DF80420F5
:103B20000122E1E737A0F4E753466046009AFCF72C
:103B3000FCFB84460398825C0298A0F1010002908D
:103B400002705CEA0100EFD1029806A9A1EB000027
:103B500000F1200A600702D524F4803400E0012738
:103B6000574502DDA7EB0A0000E0002000EB0A0148
:103B7000009005984144A0EB01000590E00306D4B5
:103B80005B462146179A059800F0BBF905440027CB
:103B900006E001A85A46C05D179990476D1C7F1C2E
:103BA0004745F6DBE0030CD55B462146179A05989E
:103BB00000F0A7F9054404E030205A4617999047D1
:103BC0006D1C0099481E00900029F5DC08E0029861
:103BD00002995A460078491C0291179990476D1C2A
:103BE000BAF10001AAF1010AF1DC6BE10928010038
:103BF0003031323334353637383961626364656663
:103C00000000000030313233343536373839414224
:103C1000434445460000000000F060F9054406F109
:103C20000106307800287FF4E9AD19B02846BDE8D8
:103C3000F08F620700D4062709F1070222F0070C73
:103C4000FCE80223E14603F000485FEA080C02D0DA
:103C50000FF27C2C0DE05FEA045C02D50FF2742CAD
:103C600007E05FEAC47C02D00FF26C2C01E0AFF2F7
:103C7000700C4FF0FF3823F00043CDF850C065289A
:103C80000CD006DC452809D046281DD047283ED157
:103C90003EE0662818D0672839D139E00021112F7D
:103CA00001DB112000E0781CCDE9000106A90EA877
:103CB000FFF7EEFCDDE90F010E9A0391002100925F
:103CC00007F1010A04914EE04FF000400097CDE962
:103CD000011006A90EA8FFF7DBFCDDE90F02039235
:103CE0000E9B11990022DDF80CA00093049219B9E3
:103CF00007F1010100EB010AB7EB0A0004D4C0F19F
:103D0000FF3007F1010A0490AAEB0700019046E09A
:103D1000012F00DA01270021112F01DD112000E021
:103D20003846CDE9000106A90EA8FFF7B1FCDDE990
:103D30000F010E9A0391002104910092BA462107C7
:103D40000CD40399514500DA8A46BAF1010F05DD1A
:103D5000009AAAF10101515C302908D0B84202DA78
:103D600010F1040F06DA0121CDE9011017E0AAF1E4
:103D70000101E9E7002805DC049901440491AAEB5C
:103D8000000102E0411C514500DD8A460499A0EB88
:103D9000010000F1010001904FF000400290200767
:103DA00004D40198504501DBCDF8048000208DF843
:103DB0004F0002980DF14F07B0F1004F25D02B2096
:103DC0000E9002984FF0020800280CDA4042029050
:103DD0002D200E9007E00A210298FCF790FA30316E
:103DE000029007F8011DB8F10001A8F10108F2DC0A
:103DF00002980028EFD1791E0E980870307800F0F4
:103E0000200040F0450007F8020D12A8A0EB0700C3
:103E100000F107081498007800B1012000EB0A01B6
:103E2000019801EBE07105984144A0EB0100A0F17D
:103E300001000590E00306D45B462146179A0598D9
:103E400000F05FF805441498007820B15A4617999D
:103E5000904705F10105E00323D55B462146179AFB
:103E6000059800F04EF805441BE00498002807DB95
:103E7000DDE90301884203DD0098405C179901E009
:103E8000179930205A46904704986D1C401C0490A6
:103E90000198401E019004D12E205A461799904750
:103EA0006D1CBAF10001AAF1010ADEDC05E017F889
:103EB000010B5A46179990476D1CB8F10001A8F103
:103EC0000108F4DC5B462146179A0598A4E6000039
:103ED0002D0000002B000000200000002DE9F04123
:103EE000044600251E461746880405D406E03946D8
:103EF0002020B04705F10105641EF8D52846BDE82D
:103F0000F0812DE9F041044600251E469046C80385
:103F100001D5302700E02027880405D506E041467A
:103F20003846B04705F10105641EF8D52846BDE8BE
:103F3000F08100002DE9F0414FF00008144F48F2E5
:103F4000B0384046FCF702FE002401E0601C84B259
:103F500044F620608442F9DB4FF6FF70FCF7F6FD73
:103F600000240BE00020FCF7F1FD05462E13C5F3FD
:103F70000B00074921F81600601C84B2102CF1DBFD
:103F800048F2B0284046FCF7E1FD3846BDE8F08134
:103F9000C863002070B50546FFF7CCFF0646002435
:103FA00013E00C4931F814002146FEF75BFF25F8B9
:103FB000140004F1100291B236F81400FEF752FF1B
:103FC00005EB44010884601C84B2102CE9DB284610
:103FD00070BD0000E863002070B503460A46144631
:103FE00002F1340500211EE02648405C33F8100041
:103FF00000EE100AB8EE400A234800EB8100D0ED35
:10400000000A20EE200ADFED210A20EE200ADFED73
:10401000200A80EE201ABCEEC10A10EE100A24F825
:104020001100481CC1B21A29DEDB002126E0154E22
:1040300001F11A00305C33F8100000EE100AB8EEFF
:10404000400ADFED120A60EE200A9FED111A80EEA1
:10405000810ADFED100A30EE600AF2EE040A80EE0B
:10406000201AB3EE090A31EE000ABDEEC00A10EEC6
:10407000100A00B225F81100481CC1B20629D6DB8F
:10408000104670BD484B00080000002000401C4551
:1040900000F07F4500803B4406E04FF4FA730022B5
:1040A00011461046FDF77EFEF7E790ED060AD0EDCB
:1040B000070A30EE200AD0ED080A30EE200A80ED23
:1040C000000A90ED060AD0ED080AB0EE001A11EED3
:1040D000600A80ED010A90ED080A80ED020A19B12C
:1040E0000022C26002614261704700002DE9F04188
:1040F00032210A22674B988B1C8B5D8BB3F93C6095
:10410000B3F93E80644B1F78052F74D2DFE807F0C7
:1041100003153554740042F26C0398420CDA00F037
:1041200023FB00F027FB0123DFF86CC18CF8003083
:104130005A4B5B68CCF804306EE042F26C030B44DF
:1041400083420BDA00F00FFB0023DFF84CC18CF840
:104150000030524B1B68CCF804300DE0B0F5E15F45
:104160000ADA00F008FB0223DFF82CC18CF80030DB
:104170004A4B9B68CCF804304EE001F5E153834292
:104180000ADA00F0F7FA0123DFF80CC18CF80030EE
:10419000424B5B68CCF8043041F6583398420ADA57
:1041A00000F0E7FA0323DFF8F0C08CF800303B4B57
:1041B000DB68CCF804302FE041F658330B448342DF
:1041C0000ADA00F0D8FA0223DFF8CCC08CF800300D
:1041D000324B9B68CCF8043041F65E230B4483429B
:1041E00008DD0423DFF8B0C08CF800302B4B1B69CE
:1041F000CCF8043010E00EE041F65E230B4483421D
:1042000008DA0323DFF890C08CF80030234BDB681A
:10421000CCF8043000E000BF00BFAB18A34205DAC1
:104220000123DFF874C08CF808300DE0AB1AA3420C
:1042300005DD0023DFF860C08CF8083004E00223BD
:10424000DFF854C08CF80830134B1B7E03B3124BBD
:104250005B7A13B1012B19D10EE016F1050F0ADAC2
:104260000D4B1B78032B06DD00F01BF80123DFF854
:1042700028C08CF809300AE00A2E06DD00F010F89C
:104280000023DFF814C08CF8093000E000BF00BF45
:10429000BDE8F0811C6300205C63002080000020EA
:1042A0007047704770B548F2B0352846FCF74EFCB1
:1042B000002400E0641C44F620608442FAD34FF6E8
:1042C000FF70FCF743FC48F2B0252846FCF73EFCA3
:1042D00070BD000010B50348FCF756FF0248FCF71C
:1042E00069FF10BD786300209C63002010B5FCF7C7
:1042F000A5FF00F0DDF900F007F800F09BF800F0F2
:104300005FF900F065F910BD00B58BB0012108021E
:10431000FEF754FCFCF756FBFCF720FB0020019055
:1043200002900390049001A8FCF7E6FA00200590A3
:1043300001208DF818008DF81900002007900990D1
:1043400010208DF8280005A93948FCF773FB0121DE
:104350003748FCF7EDFA0623012200213448FCF728
:1043600093FB0623022201213148FCF78DFB062333
:10437000032202212E48FCF787FB06230422032197
:104380002B48FCF781FB0623052204212848FCF773
:104390007BFB06231A4605212548FCF775FB0623FF
:1043A000072219462248FCF76FFB06230822072143
:1043B0001F48FCF769FB0623092208211C48FCF76B
:1043C00063FB06230A2209211948FCF75DFB06233B
:1043D0000B220A211648FCF757FB06230C220B215F
:1043E0001348FCF751FB06230D220C211048FCF763
:1043F0004BFB06230E220D210D48FCF745FB06233F
:104400000F220E210A48FCF73FFB062310220F2142
:104410000748FCF739FB01210548FCF794FA012114
:104420000348FCF75DFA0248FCF78AFB0BB000BDBD
:104430000020014010B500F027F800F0A1F800F0CE
:1044400003F800F073F810BD1CB54FF480710D48EF
:10445000FCF791FE01210846FEF790FB01208DF844
:10446000040000208DF806008DF8070003208DF869
:1044700005004FF48070009069460248FCF710FE7A
:104480001CBD0000000002401CB50020FEF7E6FA4B
:104490000020FEF7F3FA0020FEF700FB0020FEF7F5
:1044A0000DFB0020FEF71AFB0020FEF727FB002083
:1044B000FEF734FB0020FEF741FB0020FEF74EFB29
:1044C0000020FEF7B9FA0020FEF79AFA0121102029
:1044D000FEF754FB01210820FEF750FB01210220CA
:1044E000FEF74CFB01208DF8040000208DF806003B
:1044F0008DF8070003208DF8050048F21C0000909D
:1045000069460848FCF7CCFD7E20009069460548C6
:10451000FCF7C6FD4FF48060009069460248FCF746
:10452000BFFD1CBD00100240000402400EB5012179
:104530008803FEF743FB00210320FEF7FDFB01206B
:10454000019000208DF808000C208DF80900012052
:104550008DF80A0001A8FCF759FD4FF44070FCF7F4
:10456000AFFE06208DF8000003208DF801008DF8C5
:10457000020001208DF803006846FCF765FE0EBDC1
:104580001CB54FF480510D48FCF7F5FD012108469C
:10459000FEF7F4FA01208DF8040000208DF80600E3
:1045A0008DF8070003208DF805004FF4805000902F
:1045B00069460248FCF774FD1CBD00000000024083
:1045C00010B5FEF79FFDFEF7B1FCFEF725FD10BD0F
:1045D00000B587B001210220FEF7D0FA05220321A1
:1045E0003148FCF7A5FD052204212F48FCF7A0FD6A
:1045F000052211462C48FCF79BFD02208DF818007F
:104600008DF8190000208DF81A0002208DF81B008B
:104610003820059005A92448FCF742FD4021224896
:10462000FCF7ABFD01208DF8180000208DF81A0072
:1046300002208DF8190000208DF81B004020059005
:1046400005A91948FCF72CFD01210803FEF7B6FA6D
:104650000020ADF800004FF48270ADF802004FF476
:104660000060ADF804000220ADF806000020ADF8AF
:1046700008004FF40070ADF80A003020ADF80C00CF
:104680000020ADF80E000720ADF81000694607487D
:10469000FEF732FB00210548FEF714FB0121034819
:1046A000FEF710FB07B000BD0004024000300140DF
:1046B00000B587B001210820FEF760FA01218804C7
:1046C000FEF76CFA072208212348FCF731FD072288
:1046D00009212148FCF72CFD00208DF81A0001204B
:1046E0008DF81B0002208DF818008DF81900C0010C
:1046F000059005A91848FCF7D3FC02208DF8180096
:104700000002059005A91448FCF7CAFC4FF4E130FB
:1047100001900020ADF80800ADF80A00ADF80C00DB
:10472000ADF810000C20ADF80E0001A90B48FEF703
:104730001FFF012240F225510848FEF7F3FE012138
:104740000648FEF7D6FE40210548FEF7C9FEFCF7F5
:10475000C1FD07B000BD0000000C02400048004051
:104760000010014070477047704700B5FFF7BEFC6E
:1047700000BD70477047704710B50446082C1DD225
:10478000DFE804F004070A0D1013161900F0CFF942
:1047900015E000F0CFF912E000F0C4F80FE000F0EF
:1047A000CAF90CE000F0C5F909E000F0C1F906E033
:1047B00000F0BCF903E000F049F800E000BF00BFE2
:1047C00010BD000070B504460D46E1B20548FEF785
:1047D00039FF00BF40210348FEF797FE0028F9D0BB
:1047E000204670BD0048004010B5FEF71BF910BD13
:1047F00000B587B0FCF75EFE032000214FF4806215
:104800000C4BCDE90132CDE90310012003460A4AE1
:1048100000900A48FDF74EF806AA09A10120FDF70D
:1048200059F90020FDF7EEFAFCF7F8FF002007B079
:1048300000BD00005C01002058110020370D000869
:104840005374617274205461736B00000EB531486B
:10485000FEF7FEFE304840892F4909892E4AD2884A
:10486000CDE9002102902C4883884288018829489C
:104870006030FEF7EDFE2848C08A2749898A264A1B
:10488000528ACDE9002102902348038AC289818996
:104890002048BC30FEF7DCFE1F48008C1E49C98B47
:1048A000CDE900101C48838B428B018B1B48FEF71F
:1048B000CFFE1948408D1849098DCDE900101648E2
:1048C000C38C828C418C15485C30FEF7C1FE1248C7
:1048D000408E00901048038EC28D818D0F48B830F5
:1048E000FEF7B6FE0C48B0F93E000B49B1F93C109A
:1048F000094AB2F93A20CDE9002102900648B0F900
:104900003830B0F93620B0F934100548FEF7A0FE73
:104910000EBD0000684B00081C630020804C00089E
:10492000944D000810B52DED028B24A0FEF790FEEB
:104930003248416832A0FEF78BFE304890ED030A02
:10494000B8EE400ADFED340A80EE201A11EE104A6C
:104950002046FBF7C1FC41EC100BB0EE408AF0EEB4
:10496000608A53EC182B2DA0FEF772FE2348418A73
:1049700032A0FEF76DFE2148018A38A0FEF768FEDE
:104980001E48007E18B13EA0FEF762FE02E042A083
:10499000FEF75EFE1948407A012803D145A0FEF7D4
:1049A00057FE02E04DA0FEF753FE1448416956A0A1
:1049B000FEF74EFEBDEC028B10BD00007C2A2A2AB9
:1049C0002A657073206261747465727920616C6C01
:1049D000207374617465732A2A2A2A2A2A2A2A2AA9
:1049E0002A2A2A2A2A2A2A2A2A2A2A2A2A2A2A2A27
:1049F0002A2A2A2A2A2A2A2A2A2A7C005C630020B8
:104A00007C206570732062617420737461747573A7
:104A1000203A257300000000002474497C20657052
:104A2000732066756C6C2063617061636974793A98
:104A30002025342E32665748720000007C206570B5
:104A4000732063757272656E74206361706369743C
:104A5000793A202533642525000000007C2065700C
:104A6000732063757272656E7420706F7765722043
:104A700072656D61696E65643A2025336425250091
:104A80007C2065707320686561746572206D6F6449
:104A9000653A206175746F007C20657073206865CD
:104AA00061746572206D6F64653A206D616E756129
:104AB0006C0000007C20657073206865617465720D
:104AC000207374617475733A2062617474657279CD
:104AD0002068656174696E67000000007C20657065
:104AE0007320686561746572207374617475733ABC
:104AF000206261747465727920206E6F742068651D
:104B00006174696E670000007C20657073206261CB
:104B100074206F666620636F756E74206E756D62AB
:104B200065723A2025346420000000007047704709
:104B3000704770477047704710B5FFF713FEFFF7D7
:104B4000C9FBFFF7AFFB10BD0002040506070D010E
:104B50000309080F0C0A0B1A1B1D1E1F1413161530
:104B60001C17180E121911107C2A2A2A2A65707334
:104B70002061646320616C6C2064617461732A2A13
:104B80002A2A2A2A2A2A2A2A2A2A2A2A2A2A2A2A85
:104B90002A2A2A2A2A2A2A2A2A2A2A2A2A2A2A2A75
:104BA0002A2A2A2A2A2A2A2A2A2A2A2A2A2A2A2A65
:104BB0002A2A2A2A2A2A2A2A2A2A2A2A2A2A2A2A55
:104BC0002A2A2A7C0D0A00007C20435F535630209D
:104BD000253464206D412C20435F53563120253409
:104BE00064206D412C20435F5356322025346420CD
:104BF0006D412C20435F53563320253464206D4192
:104C00002C20435F53563420253464206D412C20E2
:104C1000435F53563520253464206D41207C0D0AB6
:104C2000000000007C20565F53563020253464205D
:104C30006D562C20565F53563120253464206D5616
:104C40002C20565F53563220253464206D562C207C
:104C5000565F53563320253464206D562C20565F02
:104C600053563420253464206D562C20565F5356FD
:104C70003520253464206D56207C0D0A000000008C
:104C80007C20435F53564120253464206D412C2005
:104C9000435F42555320253464206D412C20565FDC
:104CA00042555320253464206D562C20565F3556CE
:104CB0002020253464206D562C20565F3356332037
:104CC000253464206D562020202020202020202004
:104CD0002020202020207C0D0A0000007C20435F43
:104CE0004F523020253464206D412C20435F4F52B9
:104CF0003120253464206D412C20435F4F523220F7
:104D0000253464206D412C20435F4F5233202534DD
:104D100064206D412C20435F4F52342025346420A1
:104D20006D41202020202020202020202020202015
:104D300020207C0D0A0000007C20435F4F5530206E
:104D4000253464206D412C20435F4F55312025349C
:104D500064206D412C20435F4F5532202534642060
:104D60006D412C20435F4F553320253464206D4125
:104D70002020202020202020202020202020202033
:104D80002020202020202020202020202020207CC7
:104D90000D0A00007C2045543020253464206465D1
:104DA00067632C2045543120253464206465676393
:104DB0002C204554322025346420646567632C2000
:104DC0004554332025346420646567632C204254A5
:104DD000302025346420646567632C2042543120E0
:104DE0002534642064656763207C0D0A000000019F
:104DF00000020001000300010002000100040001A4
:104E00000002000100030001000200010005000192
:104E10000002000100030001000200010004000183
:104E20000002000100030001000200010006000171
:104E30000002000100030001000200010004000163
:104E40000002000100030001000200010005000152
:104E50000002000100030001000200010004000143
:104E60000002000100030001000200010007000130
:104E70000002000100030001000200010004000123
:104E80000002000100030001000200010005000112
:104E90000002000100030001000200010004000103
:104EA00000020001000300010002000100060001F1
:104EB00000020001000300010002000100040001E3
:104EC00000020001000300010002000100050001D2
:104ED00000020001000300010002000100040001C3
:104EE00000020001000300010002000100000000B8
:104EF00001000000785634120100AF0001001800D4
:104F000068100100010010001400020005000100FB
:104F10003F000100010005000100180078000100B9
:104F20000400010004001800080001000400010052
:104F30000100010080000100160001000100800056
:104F400001000100010040005800E8030100177251
:104F500001001000010008000A002800800208007B
:104F600040003A236261742066756C6C206368614E
:104F7000726765640062617420656E746572207387
:104F8000616665206D6F64650062617420656E7492
:104F9000657220637269746963616C206D6F64650A
:104FA00000626174206E6F726D616C20766F6C743C
:104FB000616765006261742068617264206F666673
:104FC00000000000E44F0008000000205C01000029
:104FD00038080008305000085C0100209CD5000013
:104FE000803600080D12E3C7483F040D1214AEBF0F
:104FF00040041CE3C7C8209EC83F9A99891409142D
:1050000044A904210A13800413644F1B08A1041A45
:1050100075041A89041AB404011A2D010203040448
:105020003506070809AC7A030A1A591601890000E7
:040000050800018965
:00000001FF
